:020000040800F2
:1000000058DA0120E56700080D0F00080F0F0008FF
:10001000130F0008170F00081B0F00080000000056
:10002000000000000000000000000000F76700086A
:100030001F0F0008000000005341020899A10008AA
:10004000FF670008FF670008FF670008FF670008F8
:10005000FF670008FF670008FF670008FF670008E8
:10006000FF670008FF670008FF670008FF670008D8
:10007000FF670008FF670008FF670008FF670008C8
:10008000FF670008FF670008FF670008FF670008B8
:100090005D190008FF670008FF670008FF67000898
:1000A000FF670008FF670008FF670008FF67000898
:1000B000FF67000889110008FF670008FF67000854
:1000C000FF670008FF670008FF670008FF67000878
:1000D000FF670008FF670008C336000827390008DB
:1000E000FF670008FF670008FF670008FF67000858
:1000F000FF670008FF670008FF670008FF67000848
:10010000FF6700083D620008FF670008FF670008FE
:10011000553B0008BD3D0008FF670008FF67000869
:10012000FF670008FF670008FF670008FF67000817
:10013000FF67000855130008FF670008FF67000805
:10014000FF1A0008FF670008FF670008FF67000844
:10015000FF670008FF670008FF670008ED3F000821
:10016000FF670008FF670008FF670008FF670008D7
:10017000FF670008FF670008FF670008FF670008C7
:10018000FF670008FF67000800F002F800F070F851
:100190000AA090E8000C82448344AAF10107DA45E2
:1001A00001D100F065F8AFF2090EBAE80F0013F0C4
:1001B000010F18BFFB1A43F00103184700F60400B3
:1001C00020F604000A444FF0000C10F8013B13F035
:1001D000070408BF10F8014B1D1108BF10F8015BA0
:1001E000641E05D010F8016B641E01F8016BF9D193
:1001F00013F0080F1EBF10F8014BAD1C0C1B09D1EA
:100200006D1E58BF01F801CBFAD505E014F8016B5B
:1002100001F8016B6D1EF9D59142D6D370470000ED
:100220000023002400250026103A28BF78C1FBD8FF
:10023000520728BF30C148BF0B607047642923F0C4
:100240001B84782923F05484732923F0E886002046
:1002500070471FB523F0D6FF23F054FE04000020A2
:10026000002123F0B9FF401C60601FBD10B510BD18
:1002700023F026FF1146FFF7ECFF00F093FD23F07B
:1002800044FF03B4FFF7F2FF03BC03F0E5F80000FE
:1002900030BF72B6704762B6704780F30888704707
:1002A0000EB508E002A8002301AA194600901846DE
:1002B00021F086F900BFF5E77CB50025FEA103C952
:1002C000CDE90001002411E06B460622042129201B
:1002D00001F08BFC0546EA00F949FA48006801F094
:1002E0005AFF642009F0BEFF601CC4B2F648408C7F
:1002F000022101EA2020022801D00A2CE4DBF24886
:10030000408C022101EA2020B0B18020EF49088012
:100310000A2009F0A7FF212004F080F90A2009F043
:10032000A1FF8020E949891E08800020E849087063
:10033000E8490870E84908707CBD86B0002002904A
:10034000039005A9E54822F06AFE05A9E44822F0D9
:1003500066FEEEE005A8002304AA194600901846A0
:1003600021F02EF90446BDF8140000287BD1207836
:100370005528FBD160786628F8D12079122861D001
:1003800004DC102807D011286ED12AE013282BD0C6
:100390002028F9D169E08020CC4908800A2009F0A2
:1003A00061FF202004F03AF9322009F05BFF802041
:1003B000C649891E088002208DF8080005A8002380
:1003C000032202A90090C74821F0B4FA05A8082129
:1003D00032230022CDE900101146104622F079FAAE
:1003E000A0E0FFF769FF9DE0A179E07901F05CF9F9
:1003F00000EB80004FF6FF7101EA4000BA498880A7
:10040000217A607A01F050F900EB80004FF6FF711D
:1004100001EA4000B449C88005208DF8080005A80D
:100420000023032202A90090AE4821F083FA05A818
:10043000082132230022CDE900101146104622F097
:1004400048FA6FE08020A14908800A2009F00AFFDD
:10045000222003F090FF0A2009F004FF80209B492E
:10046000891E08805EE05EE05BE06079012806D0CE
:10047000022819D003282CD004284FD13BE04FF498
:1004800080709A4908800A2009F0ECFE0A229849F7
:10049000022003F0E7FD322009F0E4FE4FF4807003
:1004A0009249891E08803AE04FF4805091490880B3
:1004B0000A2009F0D7FE0A228D49052003F0D2FD5B
:1004C000322009F0CFFE4FF480508A49891E0880FF
:1004D00025E00820884948830A2009F0C3FE0A2243
:1004E0008349062003F0BEFD322009F0BBFE082040
:1004F0008149088313E08020744908800A2009F0AC
:10050000B1FE0A227A49012003F0ACFD322009F045
:10051000A9FE80206D49891E088000E000BF00BF51
:1005200000E000BF00BF4FF4FA7009F09BFE06F038
:100530000FF80FE70EB508E002A8002301AA19463C
:100540000090184621F03CF800BFF5E70BE002F000
:1005500089F902F0C0F902F0D4F94FF4FA7009F009
:1005600081FE05F0F5FFF2E707E002F06AFB4FF4C9
:10057000FA7009F077FE05F0EBFFF6E72DE9F04F92
:10058000ADF2944D002401209A900020989099900B
:100590004FF4007118A823F049FC58A198A823F043
:1005A00007FA4948008A642190FBF1F54648C08962
:1005B00090FBF1F64448808990FBF1F7424840896E
:1005C0000A2190FBF1F840480089642190FBF1F981
:1005D0003D48C08890FBF1FA3B4880880A2190FB97
:1005E000F1FB3948807D3849497D374A127D364BC9
:1005F000DB7CCDE91432CDE916103348807CCDE99F
:100600000CBACDE90E98CDE91076CDE912502E48FE
:10061000428D018DC08C2C4B9B8CCDE90830CDE9EF
:100620000A122948408C2B490978294A12782A4B0A
:100630001B78CDE90432CDE9061031488079304984
:1006400049792F4A12792E4BDB78CDE90032CDE97A
:1006500002102B48837802882A4918A823F0A8F9A9
:1006600029490122086829A10BF008FB04460CB1B6
:1006700000209A90122298A99BA80BF02AFB04460E
:100680000CB100209A909BA89E990BF021FE18A80F
:1006900023F046FB05461E4B2A4618A99BA80BF0E3
:1006A000B8FC04460CB100209A909BA80BF0FEFD0C
:1006B00004467CB300202EE0000012D000000000B1
:1006C000DC27002040000020742700201A0C024084
:1006D0006300002064000020650000200C2700203B
:1006E0004027002074220020A02700201A18024072
:1006F000010000201A040240000002404C6F670015
:100700008401002064F40408B8B50120303A0000E8
:10071000E401002000E09A909A980DF2944DBDE813
:10072000F08F10B506F042F8FFF728FF0446204688
:1007300010BD38B500250024FE48808800128DF8D1
:100740000000FC4800798DF80100FA48C0880012CA
:100750008DF80200F74880798DF803000020F549F4
:10076000087211E06B4615220021262001F03DFAA7
:100770000546EA00F049F148006801F00CFD0A2046
:1007800009F070FD601CC4B20A2C03DAE948007A53
:100790000128E7D1E748007A012823D10A2009F08F
:1007A00061FD232003F03AFF0C2009F05BFD2320BC
:1007B00003F034FF0E2009F055FD232003F02EFF37
:1007C000102009F04FFD232003F028FF122009F02C
:1007D00049FD232003F022FF142009F043FD2320CC
:1007E00003F01CFF0A2009F03DFD232003F016FF53
:1007F0000C2009F037FD232003F010FF0E2009F034
:1008000031FD232003F00AFF102009F02BFD2320E7
:1008100003F004FF122009F025FD232003F0FEFE63
:10082000142009F01FFD232003F0F8FE38BD7CB52D
:100830000025AFF27C1103C9CDE90001002411E0CD
:100840006B4606220521292001F0CFF90546EA0072
:10085000B949BA48006801F09EFC642009F002FD25
:10086000601CC4B2B648408CC0F3002008B90A2C02
:10087000E6DBB348408CC0F30020B0B18020B14922
:1008800008800A2009F0EEFC202003F0C7FE4FF498
:10089000FA7009F0E7FC8020AA49891E08800A2026
:1008A00009F0E0FC0120A84908707CBD86B0002456
:1008B00000200290039097E005A8002304AA19469F
:1008C0000090184620F07CFE0546BDF81400002874
:1008D0007DD1287808287FD2DFE800F00412202399
:1008E0002634373B00231A461946282001F07DF9AB
:1008F0000446E20090499148006801F04CFC6CE02D
:1009000000231A461946202001F06FF90446E20040
:1009100089498A48006801F03EFC5EE0FFF787FFE6
:100920005BE0FFF7C9FC58E00023062219462420AB
:1009300001F05BF90446E2007F498048006801F05D
:100940002AFC4AE0FFF7F5FE47E0222003F013FD02
:1009500043E07D48007818B901208DF8080016E0C2
:1009600079480078012803D102208DF808000EE0B4
:1009700075480078022803D104208DF8080006E0AD
:1009800071480078042802D108208DF80800002062
:100990008DF809006D4800788DF80A006B484078A2
:1009A000C0F3C0008DF80B0000208DF80C008DF80E
:1009B0000D0002AB0E220021332001F016F904468F
:1009C000E2005D495D48006801F0E5FB01E005E0FB
:1009D00002E0FFF7A6FE00E000BF00BF4FF4FA7090
:1009E00009F040FC05F0B4FD66E73EB504460D464F
:1009F00007205749087002A8002303220090554899
:100A000020F098FF02A8082132230022CDE900102F
:100A10001146104621F05DFF4F480088401C4E49AA
:100A200008803EBD3EB504460D4606204B49087081
:100A300002A8002303220090464820F07BFF02A872
:100A4000082132230022CDE900101146104621F082
:100A500040FF43480088401C414908803EBD30B5F6
:100A60008BB00446002500BF1BF096F80AA820F0C2
:100A700094F80AAA012108461DF06EF80AA8002180
:100A8000AFF25F020223CDE90032CDE90210642308
:100A90000A4634A1354822F000F90AA80021AFF235
:100AA000B5020223CDE90032CDE902104FF496736E
:100AB0000A462FA1304822F0F0F800BF00BF1BF01B
:100AC000A3F9054600BF00BF0AA8032100220A239C
:100AD000CDE90532CDE9071018464FF48061662252
:100AE000264BCDE90132CDE9031010200023AFF2EF
:100AF000432223A10090174820F09BFB0AA8032162
:100B000000220A23CDE90532CDE9071018468021DD
:100B10000C221E4BCDE90132CDE903100E2000233B
:100B2000AFF2BB521AA100901C4820F082FB0AA829
:100B3000032135E0A0270020DC2700204000002012
:100B4000742700201A0C0240650000206800002075
:100B500015000020742200201A0000201000002040
:100B600018000020746D7231000000000C27002076
:100B7000746D72320000000040270020B005002094
:100B800043616E207461736B00000000B0030020AD
:100B90007363616E207461736B000000B0210020EC
:100BA00000220A23CDE90532CDE90710184680213D
:100BB0000C22B24BCDE90132CDE903100F20002306
:100BC000AFF27762AEA10090B04820F032FB0AA8E5
:100BD000032100220A23CDE90532CDE9071018468A
:100BE00080210C22AA4BCDE9013200230092CDE9ED
:100BF0000310AFF2BF62A7A1A94820F01AFB0AA810
:100C0000032100220A23CDE90532CDE90710104661
:100C10004FF480711922A34BCDE90132CDE90310C5
:100C200011200023AFF6ED029FA10090A14820F013
:100C300000FB0AA8032100220A23CDE90532CDE9F1
:100C40000710104680210C229B4BCDE90132CDE9E3
:100C500003100D200023AFF6B71298A100909A4818
:100C600020F0E7FA0AA9994821F0A3FA00BF00BFD3
:100C700028461BF0CDF800BF00BF0BB030BD10B54B
:100C800001220021924801F0BCFD91480078AA2879
:100C900005D1152201218F4801F0B3FD17E0AA20EC
:100CA0008B49087001220021894801F020FC0120B5
:100CB0008849087088A18748401C23F00DF8152248
:100CC0000121844801F013FC0A2009F0CBFA10BD81
:100CD000F8B5002601F062FF4FF4E13002F0C9FBE5
:100CE0004FF4E13002F02BFD4FF4165002F013FCEC
:100CF0004FF4E13002F055FE4FF4165003F099F82E
:100D000000F016FC642009F0ADFA002006231A4614
:100D10000521009000F013FC002512E000231A4684
:100D20001946282000F061FF0646F2006F4970481E
:100D3000006801F030FA4FF4FA7009F093FA681C79
:100D4000C5B2032DEADB01F015FB4FF4FA7009F090
:100D500089FA01F092FBFFF792FF05F0FDFB05F029
:100D60001FFD05F023FD642009F07CFA002408E053
:100D70004FF4FA7009F076FA601CC4B20A2C00DD58
:100D800003E004F02FFA0028F2D100BF0CF0DEFDE2
:100D9000584901220868AFF28C610AF06FFFFFF733
:100DA000C0FCF8BD10B58AB00024A82009F000FAF4
:100DB0004FF4A06005F036FD002009F098FA0120FC
:100DC00009F095FA022009F092FAFFF781FF6420FA
:100DD00009F048FA09A81CF09BFC00BF00BF1BF0FB
:100DE00013F8044600BF00BF09A8032100220592A2
:100DF000CDE906210890104680210C223E4BCDE91A
:100E00000132CDE9031012200023AFF2AD323BA135
:100E100000902E4820F00DFA00BF00BF20461AF0C7
:100E2000F7FF00BF00BF09A81CF036FF00200AB082
:100E300010BD7CB50025AFF2807103C9CDE900017A
:100E4000002411E06B4606220421292000F0CDFE8B
:100E50000546EA0025492648006801F09CF964200F
:100E600009F000FA601CC4B22748408C022101EA54
:100E70002020022801D00A2CE4DB7CBDB01D00201C
:100E800068616E646C65207461736B00842500205A
:100E9000B01B00206D65746572207461736B000077
:100EA000FC230020B017002073637265656E207408
:100EB00061736B0038230020B0150020706C632034
:100EC0007461736B00000000C024002048260020DD
:100ED00000000020980300203230323230393035A3
:100EE0005F4830315F53303100000000DC270020C4
:100EF00040000020B8B50120B01F0020737461725B
:100F000074207461736B000074270020704700BF69
:100F1000FEE700BFFEE700BFFEE700BFFEE7704749
:100F20000CB50020019000907648006840F48030B5
:100F30007449086000BF7348006800F400300090F6
:100F40000198401C0190009818B90198B0F5A04F85
:100F5000F1D16C48006800F4003010B1012000901D
:100F600001E0002000900098012846D165484030FB
:100F7000006840F080506349403108606248006872
:100F800040F44040604908605E48083000685D49B0
:100F9000083108600846006840F4004008600846D0
:100FA000006840F4A05008605848091F0860081FF6
:100FB000006840F08070091F086000BF5148006859
:100FC00000F000700028F9D040F205705049086028
:100FD0004C480830006820F003004A490831086096
:100FE0000846006840F00200086000BF454808302D
:100FF000006800F00C000828F8D10CBD10B5454879
:10100000006840F47000434908603E48006840F0C2
:1010100001003C49086000203A490831086039481D
:1010200000683D490840374908603C48091D086090
:10103000081F006820F48020091F08600020314943
:101040000C310860FFF76CFF4FF0006031498039C8
:10105000086010BD70B50020002202230024022188
:10106000284D08352D6805F00C0020B1042806D065
:10107000082834D107E02A4D2A4E356033E02A4D46
:10108000284E35602FE01F4D2D1D2D68C5F380546F
:101090001C4D2D1D2D6805F03F0154B1224DB5FBAF
:1010A000F1F5184E361D3668C6F3881605FB06F2B4
:1010B00009E01B4DB5FBF1F5124E361D3668C6F33F
:1010C000881605FB06F20F4D2D1D2D68C5F3014551
:1010D0006D1C6B00B2FBF3F5124E356003E0104D52
:1010E000104E356000BF00BF064D08352D68C5F3B2
:1010F00003150E4E705D0B4D2D68C540094E3560D1
:1011000070BD0000003802400070004008544007E5
:10111000003C024088ED00E0FFFFF6FE10300024A6
:101120000024F4001C00002000127A00200000209F
:101130007FB504460D460121022005F050FFADF8B1
:1011400004500020ADF806000294ADF80C0001A98F
:10115000124806F046F901221146104806F0E2FD59
:1011600001210E4806F0C6F91D208DF8000001206F
:101170008DF8010003208DF8020001208DF8030096
:10118000684605F054FB7FBD10B50121034806F009
:10119000E0FD0121014806F0EDFD10BD0004004016
:1011A00010B5B0B001214FF0606005F0CFFE07F040
:1011B000F5F807F070FE00BF07F074FE0128FBD0C1
:1011C00001A807F0F6F801200190002008904FF4E4
:1011D00000700B9000200C900F90129014901590BE
:1011E000169021904FF00070229000112490002062
:1011F0002690279004202990C0052A9040122B9019
:1012000080012C9040122D9040002F90002101A8C9
:1012100007F089F9C4B2012C03D10121B64807F0C7
:1012200058FE204630B010BD08B53D208DF80000B6
:1012300000208DF801008DF8020001208DF80300D8
:10124000684605F0F4FA08BD1CB5002401214D20C4
:1012500005F07CFE0121880305F0D2FE012005F097
:10126000FBFF8620009003208DF8050002208DF8FA
:10127000040000208DF806008DF8070069469F489D
:1012800005F0C6FB0B2201219C4805F04CFC0B220B
:1012900002219A4805F047FC0B220721974805F0E8
:1012A00042FC322000906946954805F0B1FB0B22C4
:1012B0000121934805F037FC0B220421904805F0EA
:1012C00032FC0B2205218E4805F02DFC4FF4D04056
:1012D000009069468B4805F09BFB0B22114689481C
:1012E00005F021FC0B220D21864805F01CFC0B2289
:1012F0000E21844805F017FC0820009003208DF88B
:10130000050001208DF8040000208DF806008DF8FE
:10131000070069467C4805F07BFB00207B4908609C
:10132000322008F09FFF01207949C1F88C02FFF7B5
:101330007BFFFFF735FF04460CB901201CBD0020E0
:10134000FCE710B51F21002007F0BCF8C0F38204B1
:10135000204610BD10B501E00CF01EFC6D48006881
:1013600007F075FD0028F7D1402007F0C9FD4FF4C4
:10137000803007F0C5FD10BD1EB50021002200928F
:1013800001920292634A1268126802F0004282B12E
:1013900000220092604A526902F0800222B180224B
:1013A0005D4B5A6100229A609DE81C0080E81C0099
:1013B0001EBD584A1268126802F40042B2B9554A7A
:1013C0001268126802F4807282B1524A126812687E
:1013D00002F4007252B14F4A12681268C2F30D4211
:1013E000111F4C4A12689268019200E0002100919E
:1013F000484A12680292474A1268D268454B1A60FE
:101400009DE81C0080E81C0000BFD1E7014643486E
:101410000068006800F0004008B100207047C1F388
:101420000C003E4A126850603C480068006840F07A
:1014300040503A4A1268106038480068006840F02E
:101440000040364A126810603348406900F00400DA
:1014500020B10420304A5061002050602F480068BD
:10146000C0682E4A10600120D8E72C4800688068C8
:10147000704710B52A480168002008F0EEFF29489F
:101480000168002008F0E9FF27480168002008F003
:10149000E4FF26480168002008F0DFFF10BD10B50A
:1014A000A021002008F0E9FF1D490860A0210020CC
:1014B00008F0E3FF1B49086041F6C451002008F022
:1014C000DCFF1949086041F6C451002008F0D5FF3F
:1014D000164908601248006840B11248006828B1F7
:1014E0001148006810B10846006818B9FFF7C1FF3D
:1014F000012010BD0020FCE7400001000000024078
:101500000008024000180240000C02408C82414258
:1015100000804142A0010020009002409C01002078
:101520003000002034000020380000203C00002063
:10153000FC48FD490860FD48FD49086070472DE9F9
:10154000F0418AB004460D4616461F46DDF840803D
:101550000121084605F0FAFC0121480605F03FFD8F
:101560004FF4C050089002208DF8240000208DF820
:10157000260003208DF8250001208DF8270008A9FA
:10158000EC4805F045FA09220B21EA4805F0CBFAB0
:1015900009220C21E74805F0C6FA00208DF81A0050
:1015A00001208DF81B0000208DF81C0001208DF813
:1015B0001D0000208DF81E008DF81F008DF816808C
:1015C0008DF817408DF818608DF81950ADF814702B
:1015D00005A9D94807F0E1FF00208DF80E008DF82D
:1015E0000F0001208DF810000020ADF80400ADF8C8
:1015F0000600ADF80800ADF80A00ADF80C000120B7
:101600008DF8110001A808F052F801220221CA4801
:1016100008F04CFB14208DF8000001208DF801002B
:1016200000208DF8020001208DF80300684605F0C7
:10163000FEF800200AB0BDE8F0812DE9F04186B047
:1016400007460D4690460024CDF8088004208DF80A
:101650000C0000208DF80D008DF80E5000BF05E045
:10166000395D0DF10F000155601C84B2AC42F7DB0F
:1016700001A9B14808F00AF90646002401E0601CFF
:1016800084B23146AC4808F099F918B940F6FF70B9
:101690008442F4DB40F6FF70844203DB012006B095
:1016A000BDE8F0810020FAE7024641EA02207047D7
:1016B00070B50246002041F22104002513E012F823
:1016C000015B80EA052000230BE000F400461EB118
:1016D00084EA4006B0B203E04FF6FF7606EA400027
:1016E0005B1C082BF1DB0B1EA1F10106B1B2E6D1A8
:1016F00070BD10B504462078E0287DD160780128BF
:10170000FBD1A0780128F8D1E07828281AD006DC8F
:1017100020280BD024280AD026286ED10BE02928B7
:1017200017D0322819D03328F7D169E095E003208B
:101730008249087091E001208149087202207F49A6
:1017400008708AE0A17C607CFFF7AEFF7D490884C9
:1017500083E00320794908707FE028212046FFF7C5
:10176000A7FF79490880E17AA07AFFF79DFF7749C2
:101770000870617B207BFFF797FF724988800846DD
:1017800080880880E17BA07BFFF78EFF6D49C880D1
:101790000846C0884880617C207CFFF785FF694946
:1017A0000881E17CA07CFFF77FFF66494881617D6D
:1017B000207DFFF779FF6349888108468089488347
:1017C000E17DA07DFFF770FF5E49C881617E207ECC
:1017D000FFF76AFF5B490882207F28388874607FA2
:1017E0002838C874A07F28380875E07F28384875E5
:1017F00094F82000283801E030E02DE088752CE0D6
:1018000021212046FFF754FF034694F8221094F854
:101810002100FFF749FF83421DD1A17B607BFFF7C9
:1018200043FF48494884217CE07BFFF73DFF454961
:101830008884A17C607CFFF737FF4249C884E17D42
:10184000A07DFFF731FF3F490885617E207EFFF7CD
:101850002BFF3C49488500E000BF00BF10BD0FB41E
:1018600010B53B480078012858D10020384908704D
:101870009DF8130060B93749059A0A60BDF8182031
:101880008A809DF81A0088710120334908701BE096
:1018900031480078012817DB2F480078802813DAB8
:1018A0002D480078401C2C49087008460078401EDE
:1018B000C0EBC00027490144059A0A60BDF8182012
:1018C0008A809DF81A0088719DF81300802825DB16
:1018D00021480078012821DB1F48007808281DDAFC
:1018E0001D480078401C1C49087008460078401EBE
:1018F000C0EBC00017490144059A0A60BDF81820E2
:101900008A809DF81A0088711248FFF7F2FE0020C5
:101910001149087032210F4822F066FA10BC5DF8B8
:1019200014FB00008100BE1F40000020F87E201044
:1019300044000020000002400064004049000020F4
:10194000A027002074270020580000204A00002013
:1019500048000020AA2700205A00002000B587B0C8
:101960001BF066FF02AA0021FE4808F084F8FE4939
:101970000398084448B90698009002A80FC8FFF7DA
:101980006EFF0120F949087000E000BF00BF1BF0A6
:1019900060FF07B000BD2DE9F0418AB004460D4656
:1019A00016461F46DDF840800121022005F0CEFAE0
:1019B0000121880605F013FB6020089002208DF8B5
:1019C000240000208DF8260003208DF8250001203A
:1019D0008DF8270008A9E64805F01AF80922052124
:1019E000E34805F0A0F809220621E14805F09BF83C
:1019F00000208DF81A0001208DF81B0000208DF8C2
:101A00001C0001208DF81D0000208DF81E008DF8AF
:101A10001F008DF816808DF817408DF818608DF82E
:101A20001950ADF8147005A9D24807F0B6FD0F2083
:101A30008DF80E0000208DF80F0001208DF81000A9
:101A40000020ADF80400ADF80600ADF80800ADF8D0
:101A50000A00ADF80C0001208DF8110001A807F074
:101A600026FE01220221C34808F020F940208DF80B
:101A7000000002208DF8010001208DF802008DF891
:101A80000300684604F0D3FE00200AB0BDE8F081F0
:101A90002DE9F04186B007460D4690460024CDF86A
:101AA000088004208DF80C0000208DF80D008DF8C2
:101AB0000E5000BF05E0395D0DF10F000155601CAF
:101AC00084B2AC42F7DB01A9AA4807F0DFFE064664
:101AD000002401E0601C84B23146A64807F06EFF86
:101AE00018B940F6FF708442F4DB40F6FF70844280
:101AF00003DB012006B0BDE8F0810020FAE700B565
:101B000087B01BF095FE02AA00219A4807F0B3FFA8
:101B100095490398084448B90698009002A80FC850
:101B2000FFF79DFE01209149087000E000BF00BF53
:101B30001BF08FFE07B000BD30B585B00546002113
:101B40008C4808F01BF810B9002005B030BD6A467B
:101B50000021884807F08FFF002404E00DF10B00FE
:101B6000005D2855641C9DF80A00A042F6D89DF837
:101B70000A00EAE730B5024600210020282A14D0E6
:101B800006DC202A0BD0242A0BD0262A15D10AE005
:101B9000292A0CD0322A0CD0332A0ED10BE0002196
:101BA0000CE006210AE0152108E0002106E00621EC
:101BB00004E0002102E00E2100E000BF00BF01F1BF
:101BC0000E03072493FBF4F504FB153333B101F145
:101BD0000E0393FBF4F35B1CD8B205E001F10E0396
:101BE000072493FBF4F3D8B230BD2DE9F0438DB058
:101BF0008046894616461D46002700243421684643
:101C000022F014F932215C4822F010F9002000EB98
:101C1000C401594A5054E020012101EBC401505441
:101C20007D20022101EBC40150547820032101EBF7
:101C3000C4015054042000EBC400114601F8008098
:101C4000B8F1290F03D0B8F1330F23D111E02420CC
:101C5000052101EBC401484A5054062000EBC400A2
:101C6000114601F800908020072101EBC401505477
:101C700020E00020052101EBC4013F4A505401201F
:101C8000062101EBC40150540020072101EBC401DF
:101C900050540FE00020052101EBC401364A505496
:101CA000062101EBC40150548020072101EBC4013F
:101CB000505400BF00BF4046FFF75CFF0446022CB3
:101CC00006D0032C66D0042C7ED0052C7DD1A6E155
:101CD00004F17F00C1B2601E002202EBC000264A60
:101CE00011540121601E01EBC00011540021601E3F
:101CF000022202EBC000204A1154601E032202EBB4
:101D0000C0001D4A11543112601E042202EBC000B3
:101D1000194A1154601E052202EBC000164A1654DF
:101D2000A01E012101EBC00011460844016800918A
:101D30008188ADF8041080798DF80600601E0121BD
:101D400001EBC000114608440168CDF80710007986
:101D50008DF80B000C216846FFF7AAFC0746390AEC
:101D6000601E0BE0006400400881DFEF48000020A7
:101D70000004024000680040DC270020062202EB3D
:101D8000C000FE4A1154601E072202EBC000FB4A4D
:101D90001754FBE10121A01E002202EBC000F74A0C
:101DA0001154A01E01EBC00011540021A01E0222FC
:101DB00002EBC000F14A1154A01E032202EBC00046
:101DC000EE4A1154311201E07FE0DEE1A01E042250
:101DD00002EBC000E94A1154A01E052202EBC0002C
:101DE000E64A16542978A01E062202EBC000E34AF8
:101DF00011546978A01E072202EBC000DF4A11547B
:101E000004F17F00C1B2601E002202EBC000DB4A79
:101E10001154A978601E012202EBC000D74A115468
:101E2000E978601E022202EBC000D44A11542979DD
:101E3000601E032202EBC000D04A11546979601E73
:101E4000042202EBC000CD4A1154E01E012101EB37
:101E5000C00011460844016800918188ADF8041063
:101E600080798DF80600A01E012101EBC00011460B
:101E700008440168CDF807108188ADF80B1080790F
:101E80008DF80D00601E012101EBC00011460844D1
:101E90000068CDF80E0012216846FFF709FC0746DE
:101EA000390A601E052202EBC000B44A1154601EBC
:101EB000062202EBC000B14A17540021601E07221F
:101EC00002EBC000AD4A115460E1E01EC1B2002235
:101ED00002EBC000A94A11540121E01E01EBC00031
:101EE00011540021E01E022202EBC000A34A11544B
:101EF000E01E032202EBC000A04A1154E01E04229F
:101F000002EBC0009D4A1154E01E052101EBC00008
:101F100011460E542978E01E062202EBC000974AB3
:101F200011546978E01E072202EBC000934A115455
:101F3000A01EC1B2002202EBC000904A1154A97841
:101F4000A01E012202EBC0008C4A1154E978A01EA9
:101F5000022202EBC000894A11542979A01E0322F3
:101F600002EBC000854A11546979A01E042202EBDD
:101F7000C000824A115404F17F00C1B2601E0022E9
:101F800002EBC0007D4A1154201F012101EBC0006B
:101F900011460844016800918188ADF804108079E9
:101FA0008DF80600E01E012101EBC0001146084437
:101FB0000168CDF807108188ADF80B1080798DF895
:101FC0000D00A01E012101EBC0001146084401686C
:101FD000CDF80E108188ADF8121080798DF81400BC
:101FE000601E012101EBC000114608440168CDF8D4
:101FF000151000798DF819001A216846FFF758FB73
:102000000746390A601E062202EBC0005B4A1154E3
:10201000601E072202EBC000584A1754B6E0201F8A
:10202000C1B2002202EBC000544A11540121201F0A
:1020300001EBC00011540021201F022202EBC0005E
:102040004E4A1154201F032202EBC0004B4A115488
:102050003112201F042202EBC000484A1154201FF5
:10206000052202EBC000454A16542978201F06229B
:1020700002EBC000414A11546978201F072202EB8D
:10208000C0003E4A1154E01EC1B2002202EBC00063
:102090003A4A1154A978E01E012202EBC000374AE7
:1020A0001154E978E01E022202EBC000334A1154B9
:1020B000A01EC1B2002202EBC000304A115404F14C
:1020C0007F00C1B2601E002202EBC0002B4A1154F7
:1020D000601F012101EBC000114608440168009116
:1020E0008188ADF8041080798DF80600201F012149
:1020F00001EBC000114608440168CDF80710818843
:10210000ADF80B1080798DF80D00E01E012101EB78
:10211000C000114608440168CDF80E108188ADF862
:10212000121080798DF81400A01E012101EBC0006F
:10213000114608440168CDF815108188ADF81910D2
:1021400080798DF81B00601E012101EBC000114653
:1021500008440168079100798DF820002121684624
:10216000FFF7A6FA0746390A601E062202EBC000F6
:10217000024A1154601E072202E00000DC27002002
:1021800002EBC000774A175400E000BF00BF2046B2
:102190000DB0BDE8F0832DE9F04105460E46174627
:1021A00000240AE006EBC4002A460821FFF745FA9E
:1021B000142008F057F8601CC4B2082000FB14700B
:1021C0000028EFDC0020BDE8F0812DE9F0418AB065
:1021D00004460D4616461F46DDF8408001210220C8
:1021E00004F0B4FE0121880604F0F9FE6020089096
:1021F00002208DF8240000208DF8260003208DF8A1
:10220000250001208DF8270008A9574804F000FC9C
:1022100009220521544804F086FC0922062152486F
:1022200004F081FC00208DF81A0001208DF81B00BD
:1022300000208DF81C0001208DF81D0000208DF875
:102240001E008DF81F008DF816808DF817408DF850
:1022500018608DF81950ADF8147005A9434807F0BF
:102260009CF90F208DF80E0000208DF80F00012042
:102270008DF810000020ADF80400ADF80600ADF8B0
:102280000800ADF80A00ADF80C0001208DF811002F
:1022900001A807F00CFA01220221344807F006FDDC
:1022A00040208DF8000002208DF8010001208DF8FB
:1022B00002008DF80300684604F0B9FA00200AB065
:1022C000BDE8F0812DE9F04186B007460D46904605
:1022D0000024002001903A20029000208DF80C008C
:1022E0008DF80D008DF80E5000BF05E0395D0DF141
:1022F0000F000155601C84B2AC42F7DB01A91B48FA
:1023000007F0C4FA0646002401E0601C84B231469E
:10231000164807F053FB18B940F6FF708442F4DB0F
:1023200040F6FF70844203DB012006B0BDE8F08177
:102330000020FAE710B501200D490870022048700E
:10234000032088700420C870052008710620487199
:10235000072088710820C871002208210448FFF76F
:10236000B1FF10BDDC2700200004024000680040DF
:102370005B00002010B500F0E3FA10BD70B5044614
:10238000002600F0FCFA2546E11704EB1161091262
:10239000A02202EB4101C8B200F09DFB00F030FB2F
:1023A000E11704EB11610912A4EB0121C8B200F09E
:1023B00092FB00F025FB00F0E2FAA12000F08BFB7D
:1023C00000F01EFB002000F0B3FB064600F0F9FA17
:1023D000304670BD70B504460E4600F0D0FA254672
:1023E000E11704EB11610912A02202EB4101C8B20E
:1023F00000F071FB00F004FBE11704EB116109121E
:10240000A4EB0121C8B200F066FB00F0F9FA3046F7
:1024100000F061FB00F0F4FA00F0D3FA0A2007F0B4
:1024200021FF70BD2DE9F04105460E4617460024F8
:1024300009E0E20026FA02F2D1B22A1990B2FFF7BF
:10244000C9FF601CC4B2BC42F3DBBDE8F0812DE9DA
:10245000F04107460C460026002509E036023919EE
:10246000491B491E88B2FFF789FF0644681CC5B2A4
:10247000A542F3DB3046BDE8F08110B5FF20FFF741
:102480007DFF0446552C01D1002010BD5521FF20B1
:10249000FFF7A0FFFF20FFF771FF0446552C01D185
:1024A0000020F2E70120F0E770B506460C4615461D
:1024B00008E03046721C96B2FFF760FF04F8010B8B
:1024C000681E85B2002DF4D170BD70B505460C466E
:1024D000164606E021782846FFF77CFF681C85B287
:1024E000641C301EA6F101018EB2F3D170BD2DE93E
:1024F000F04707460D4614464FF00009C846C2464D
:1025000000262846E91705EB11710911A5EB011109
:1025100001F0FF0ACAF11000C6B22046E11704EB31
:102520001171C1F30719E11704EB11710911A4EB43
:10253000011101F0FF08BAF1000F19D108E01022D3
:1025400039462846FFF7C1FF05F1100085B2103764
:10255000B9F10000A9F1010101F0FF09EFD1B8F1D3
:10256000000F3FD0424639462846FFF7AEFF39E01C
:10257000B44205DA224639462846FFF7A6FF31E085
:10258000A01B84B22046E11704EB1171C1F30719B7
:10259000E11704EB11710911A4EB011101F0FF081F
:1025A0003EB1324639462846FFF78FFFA81985B25B
:1025B000374408E0102239462846FFF786FF05F128
:1025C000100085B21037B9F10000A9F1010101F046
:1025D000FF09EFD1B8F1000F04D042463946284632
:1025E000FFF773FFBDE8F08770B504460D46264639
:1025F00000F0C5F9A02000F06EFA00F001FA00B179
:1026000018E0301200F067FA00F0FAF900B111E0BA
:10261000F0B200F060FA00F0F3F900B10AE02846E9
:1026200000F059FA00F0ECF900B103E000F0C9F94C
:10263000012070BD00F0C5F90020FAE72DE9F04750
:1026400080460E4691464FF6FF7000EA861500243C
:1026500032E014B105F03F0010BB00270AE000F0A3
:102660008EF9A02000F037FA00F0CAF900B904E0B2
:10267000781C87B2B7F57A7FF1DB00BFB7F57A7FB8
:1026800000D120E0281200F026FA00F0B9F900B1DC
:1026900019E0E8B200F01FFA00F0B2F900B112E060
:1026A00018F8040000F017FA00F0AAF900B10AE0E7
:1026B000681C85B2601C84B24C45CADB00F081F90D
:1026C0000120BDE8F08700F07CF90020F9E770B543
:1026D0000446254600F053F9A02000F0FCF900F074
:1026E0008FF908B100F06DF9281200F0F4F900F04C
:1026F00087F908B100F065F9E8B200F0ECF900F0F4
:102700007FF908B100F05DF900F039F9A12000F07F
:10271000E2F900F075F908B100F053F9002000F07B
:1027200007FA064600F0B6F900F04BF9304670BDE6
:102730002DE9F04107460D4616464FF6FF7000EAB8
:10274000851800F01CF9B02000F0C5F900F058F928
:1027500000B12FE04FEA282000F0BDF900F050F959
:1027600000B127E008F0FF0000F0B5F900F048F9EB
:1027700000B11FE000F003F9B12000F0ACF900F067
:102780003FF900B116E000240DE0002000F0D0F980
:102790003855701EA04202D000F05BF901E000F055
:1027A00079F9601C84B2B442EFDB00F00AF9012031
:1027B000BDE8F08100F005F90020F9E770B50546A5
:1027C0000C46164606E021782846FFF70DFF681CE8
:1027D00085B2641C301EA6F101018EB2F3D170BD2A
:1027E00070B506460C46154608E03046721C96B297
:1027F000FFF76DFF04F8010B681E85B2002DF4D1C0
:1028000070BD70B504460D46164632462146284630
:10281000FFF7E6FF70BD10B5C0B0002404E020A9AA
:102820000C552046601C84B2802CF8DB80220021ED
:1028300020A8FFF75CFE802269460020FFF734FEE7
:1028400000240BE01DF8040020A9095D884202D095
:10285000012040B010BD2046601C84B2802CF1DB0A
:102860000020F6E732480078052831D2DFE800F092
:10287000030C151E27004FF480502E494883C010CA
:1028800008830001488324E04FF4805029490883DD
:10289000C0104883000148831BE04FF48050254955
:1028A0004883C01048830001088312E04FF4805031
:1028B00020494883C01048830001088309E04FF491
:1028C00080501C494883C01008830001488300E001
:1028D00000BF00BF70471848007809280ED2DFE813
:1028E00000F00D05060708090A0B0C0007E006E0DA
:1028F00005E004E003E002E001E000E000BF00BF0B
:1029000070470E48007809280ED2DFE800F00D0568
:10291000060708090A0B0C0007E006E005E004E0E2
:1029200003E002E001E000E000BF00BF70470000EC
:1029300065000020001002406300002064000020B9
:102940001CB50121022004F001FB4FF440700090FF
:1029500001208DF8040000208DF8060003208DF87A
:10296000050001208DF807006946894804F050F8F9
:102970000120884908608849C1F8A4021CBD10B52F
:102980008348006820F440208149086008460068B8
:1029900040F48020086001207E49091D08607E49BE
:1029A000C1F8A002042007F032FC00207949091D7B
:1029B0000860042007F02BFC00207749C1F8A00232
:1029C00010BD10B57248006820F4402070490860BE
:1029D0000846006840F48020086000206D490860C7
:1029E0006D49C1F8A402042007F011FC01206949D7
:1029F00008606949C1F8A402042007F008FC10BD72
:102A000010B500246248006820F440206049086046
:102A100008460068086001205E49091D086007F04B
:102A2000F6FB01205C49C1F8A00207F0F0FB07E0CB
:102A3000601CC4B2FA2C03DDFFF7C3FF012010BDF8
:102A400054487C3800680028F2D15249086000BF21
:102A5000F5E710B500204F4908604D48006820F4A4
:102A600040204B4908600846006840F48020086018
:102A700000204949C1F8A402022007F0C8FB012048
:102A800044490860022007F0C2FB00204249C1F817
:102A9000A00210BD10B500203E4908603C48006807
:102AA00020F440203A4908600846006840F480203D
:102AB000086001203849C1F8A402022007F0A7FBF2
:102AC000012034490860022007F0A1FB00203249B0
:102AD000C1F8A00210BD70B504462D48006820F46E
:102AE00040202B4908600846006840F480200860B8
:102AF000002028490860002517E0E0092549091D44
:102B000008606006040E022007F081FB01202249C4
:102B1000C1F8A002022007F07AFB00201D490860DE
:102B2000022007F074FB681CC5B2082DE5DB70BD00
:102B300070B5054600241648006820F4402014496A
:102B40000860084600680860002616E00020114969
:102B50000860022007F05BFB01200F49C1F8A002CA
:102B60006006040E0B487C38006808B1601CC4B2D3
:102B7000012007F04CFB701CC6B2082EE6DB15B92D
:102B8000FFF788FF01E0FFF764FF204670BD0000FB
:102B900000040240A0824042008040421CB5012156
:102BA0005F2004F0D3F901208DF8040000208DF897
:102BB000060003208DF8050001208DF807004FF472
:102BC000785000906946FE4803F022FF00208DF8FF
:102BD000040003208DF8050001208DF807004FF454
:102BE000014000906946F74803F012FF4FF612705B
:102BF00000906946F44803F00BFF40F2FC6000903F
:102C00006946F24803F004FF4FF48050EC49088312
:102C1000C0100883000108838010088340100883D7
:102C20004FF47A7007F01EFB4FF48050E44948835C
:102C3000C0104883000148838010488340104883B7
:102C40001CBD10B500240421E04803F043FF012817
:102C500019D1642007F006FB0421DC4803F03AFF99
:102C600001281BD1642007F0FDFA0421D74803F0A6
:102C700031FF012812D1D648007820F00100401C15
:102C8000D34908700AE00421D04803F023FF28B993
:102C9000CF48007820F00100CD4908704FF4004182
:102CA000C94803F017FF01281BD1642007F0DAFAA6
:102CB0004FF40041C44803F00DFF01281DD16420EA
:102CC00007F0D0FA4FF40041BF4803F003FF01289A
:102CD00013D1BF48007820F00200801CBC49087066
:102CE0000BE04FF40041B84803F0F4FE28B9B848AF
:102CF000007820F00200B64908704FF48051B248C5
:102D000003F0E8FEC0B9642007F0ACFA4FF480513C
:102D1000AD4803F0DFFEE8B9642007F0A3FA4FF4F2
:102D20008051A94803F0D6FEA0B9A948007820F048
:102D30000400A74908700DE04FF48051A24803F049
:102D4000C9FE012806D1A248007820F00400001D29
:102D50009F4908704FF400619B4803F0BBFEC0B967
:102D6000642007F07FFA4FF40061974803F0B2FE49
:102D7000E8B9642007F076FA4FF40061924803F056
:102D8000A9FEA0B99248007820F008009049087088
:102D90000DE04FF400618C4803F09CFE012806D141
:102DA0008B48007820F0080008308949087010210D
:102DB000854803F08FFEB0B9642007F053FA102164
:102DC000814803F087FED8B9642007F04BFA102140
:102DD0007D4803F07FFE98B97D48007820F0100010
:102DE0007B4908700CE01021774803F073FE01283E
:102DF00006D17748007820F0100010307449087030
:102E00000221714803F066FEB0B9642007F02AFA87
:102E100002216D4803F05EFED8B9642007F022FA63
:102E20000221694803F056FE98B96948007820F0FD
:102E30002000674908700CE00221634803F04AFE55
:102E4000012806D16248007820F020002030604937
:102E500008704FF400715C4803F03CFEC0B9642078
:102E600007F000FA4FF40071574803F033FEE8B959
:102E7000642007F0F7F94FF40071534803F02AFE7D
:102E8000A0B95348007820F04000514908700DE087
:102E90004FF400714C4803F01DFE012806D14C4848
:102EA000007820F040004030494908704FF48071AC
:102EB000454803F00FFEC0B9642007F0D3F94FF482
:102EC0008071414803F006FEE8B9642007F0CAF9B2
:102ED0004FF480713C4803F0FDFDA0B93C480078F8
:102EE00020F080003A4908700DE04FF480713648B8
:102EF00003F0F0FD012806D13548007820F080006D
:102F00008030334908704FF480412F4803F0E2FDD0
:102F100078B9642007F0A6F94FF480412A4803F0FD
:102F2000D9FDF0B92A48407820F0010028494870BE
:102F300017E04FF48041244803F0CCFD012810D164
:102F4000642007F08FF94FF480411F4803F0C2FD61
:102F5000012806D11E48407820F00100401C1C4981
:102F600048704FF40051184803F0B4FD78B964205C
:102F700007F078F94FF40051134803F0ABFDF0B9B6
:102F80001348407820F002001149487017E04FF4D0
:102F900000510D4803F09EFD012810D1642007F078
:102FA00061F94FF40051084803F094FD012806D15F
:102FB0000748407820F00200801C0549487009E06D
:102FC0000010024000000240000C024000180240C5
:102FD000680000204FF40071FE4803F07BFD78B9D3
:102FE000642007F03FF94FF40071FA4803F072FDD6
:102FF000F0B9F948407820F00400F749487017E02C
:103000004FF40071F34803F065FD012810D16420EE
:1030100007F028F94FF40071EE4803F05BFD01283A
:1030200006D1ED48407820F00400001DEA494870C0
:103030001021E84803F04EFD70B9642007F012F942
:103040001021E44803F046FDE0B9E348407820F061
:103050000800E149487015E01021DE4803F03AFD10
:1030600001280FD1642007F0FDF81021D94803F0A2
:1030700031FD012806D1D848407820F008000830FA
:10308000D54948704FF48061D24803F023FD78B9E8
:10309000642007F0E7F84FF48061CE4803F01AFD92
:1030A000F0B9CD48807820F00100CB49887017E056
:1030B0004FF48061C74803F00DFD012810D1642052
:1030C00007F0D0F84FF48061C24803F003FD0128F7
:1030D00006D1C148807820F00100401CBE498870AC
:1030E0000821BC4803F0F6FC70B9642007F0BAF878
:1030F0000821B84803F0EEFCE0B9B748807820F02A
:103100000200B549887015E00821B24803F0E2FCDE
:1031100001280FD1642007F0A5F80821AD4803F07D
:10312000D9FC012806D1AC48807820F00200801C30
:10313000A94988704FF48061A84803F0CBFC78B9A6
:10314000642007F08FF84FF48061A44803F0C2FCBC
:10315000F0B9A148807820F004009F49887017E0FA
:103160004FF480619D4803F0B5FC012810D1642024
:1031700007F078F84FF48061984803F0ABFC012821
:1031800006D19548807820F00400001D924988708F
:103190004FF40041924803F09DFC78B9642007F099
:1031A00061F84FF400418E4803F094FCF0B98A486E
:1031B000807820F008008849887017E04FF40041BB
:1031C000874803F087FC012810D1642007F04AF8F3
:1031D0004FF40041824803F07DFC012806D17E486F
:1031E000807820F0080008307B49887040217948B9
:1031F00003F070FC70B9642007F034F84021754882
:1032000003F068FCE0B97448807820F0100072493F
:10321000887015E040216F4803F05CFC01280FD155
:10322000642007F01FF840216A4803F053FC01288E
:1032300006D16948807820F0100010306649887007
:103240002021644803F046FC70B9642007F00AF8B6
:103250002021604803F03EFCE0B95F48807820F010
:1032600020005D49887015E020215A4803F032FCA7
:1032700001280FD1642006F0F5FF2021554803F006
:1032800029FC012806D15448807820F02000203005
:10329000514988704FF48071514803F01BFC78B994
:1032A000642006F0DFFF4FF480714D4803F012FCFC
:1032B000F0B94948807820F040004749887017E00D
:1032C0004FF48071464803F005FC012810D16420BA
:1032D00006F0C8FF4FF48071414803F0FBFB012862
:1032E00006D13D48807820F0400040303A4988704F
:1032F0008021384803F0EEFB70B9642006F0B2FF7D
:103300008021344803F0E6FBE0B93348807820F0B0
:1033100080003149887015E080212E4803F0DAFBE7
:1033200001280FD1642006F09DFF8021294803F079
:10333000D1FB012806D12848807820F08000803019
:10334000254988702448008884B240F6FC70844285
:103350006FD021480078C0F3001028B9052021491A
:1033600008700220204908701B480078C0F3400014
:1033700020B102201B4908701B49087016480078CC
:10338000C0F3C00028B9042016490870022016496D
:10339000087011480078C0F3800028B90320114953
:1033A00008700220104908700B480078C00928B93D
:1033B00008200C49087002200B49087006488078E4
:1033C000C0F3400028B902200849087003200649CC
:1033D00008700DE00018024068000020000C024058
:1033E000000002406300002065000020640000200F
:1033F00016488078C0F3401028B906201449087098
:1034000003201449087011488078C0F3001028B9CF
:1034100005200F49087003200E4908700B484078BA
:10342000C0F3C00028B909200949087004200949DF
:10343000087006484078C0F3C00028B90920044944
:10344000087004200349087010BD000068000020C7
:10345000640000206500002000BF704700BFFE4AE6
:10346000128802F04002002AF9D0C2B2FA4B9A80C8
:10347000704710B588B004460121084603F066FD88
:103480000121102003F0BCFD07220921F34803F0BD
:103490004AFB07220A21F14803F045FB4FF4C060C4
:1034A000069002208DF81C008DF81D0000208DF87C
:1034B0001E0001208DF81F0006A9E84803F0A8FAB5
:1034C00002940020ADF80C00ADF80E00ADF810002D
:1034D000ADF814000C20ADF8120002A9DE4804F08B
:1034E0008CFD0121DC4804F010FE012240F2255140
:1034F000D94804F0C0FE25208DF8040003208DF883
:1035000005008DF8060001208DF8070001A803F0E2
:103510008EF908B010BD10B596B004460121082000
:1035200003F014FD0121480403F059FD0121480571
:1035300003F00CFD07220521C94803F0F4FA072225
:103540000621C74803F0EFFAE020149002208DF81E
:1035500054008DF8550000208DF8560001208DF89C
:10356000570014A9BE4803F053FA8020149001209C
:103570008DF8540000208DF8560003208DF855007A
:1035800001208DF8570014A9B54803F041FA1094B2
:103590000020ADF84400ADF84600ADF84800ADF8A5
:1035A0004C000C20ADF84A0010A9AE4804F025FDEF
:1035B0000121AC4804F0A9FD012240F22441A948B0
:1035C00004F059FE26208DF83C0003208DF83D00C4
:1035D0008DF83E0001208DF83F000FA803F027F979
:1035E000012280219F4804F03DFE012240219D4898
:1035F00004F038FE9C4805F0E3FD00BF9A4805F052
:1036000008FF0028FAD14FF0006000909548001D97
:103610000190964802904020039080000490002082
:1036200005904FF480600690002007900890099064
:103630004FF480300A9000200B9003200C90002063
:103640000D900E906946884805F05CFE8648183853
:1036500005F0B6FD00BF8448183805F0DAFE0028F2
:10366000F9D14FF0006000907E48001D0190804825
:103670000290002003904FF4807004900020059089
:103680004FF48060069000200790089009904FF456
:1036900080300A9000200B9003200C9000200D90A9
:1036A0000E9069467048183805F02CFE01216E48CE
:1036B000183805F061FE802069491831088016B07D
:1036C00010BD1CB51AF0B4F840F22441654804F06E
:1036D0000DFE98B300216448183805F04DFE61488E
:1036E0000488001D04886048183805F068FEC0F59D
:1036F000807084B284B122465D495E4820F02FFB81
:10370000082C01D00F2C07D101A8002322465949CB
:10371000009059481EF00EF958495348183805F0E2
:10372000A4FE4FF480715048183805F046FE012180
:103730004D48183805F020FE1AF08BF81CBD10B566
:1037400096B004460121022003F000FC0121880408
:1037500003F045FC0121480503F0F8FB07220A218C
:10376000474803F0E0F907220B21454803F0DBF955
:103770004FF44060149002208DF854008DF85500ED
:1037800000208DF8560001208DF8570014A93C4800
:1037900003F03EF94FF48050149001208DF854004E
:1037A00000208DF8560003208DF8550001208DF87B
:1037B000570014A9324803F02BF910940020ADF8FB
:1037C0004400ADF84600ADF84800ADF84C000C20C0
:1037D000ADF84A0010A92B4804F00FFC012129483C
:1037E00004F093FC012240F22441264804F043FDFA
:1037F00027208DF83C0003208DF83D008DF83E0019
:1038000001208DF83F000FA803F011F8012280215C
:103810001C4804F027FD012240211A4804F022FD33
:103820001148483805F0CCFC00BF0F48483805F077
:10383000F0FD0028F9D14FF0006000901148001D04
:1038400001901148029040200390800004900020D5
:1038500005904FF4806019E0001001400000024024
:10386000000C024000440040A06002400E280020EE
:103870000E2900200E32002038230020400F0020A7
:1038800000040240004800400E2A0020069000205C
:103890000790089009904FF480300A9000200B9018
:1038A00003200C9000200D900E906946FE4805F014
:1038B00029FDFD48303805F083FC00BFFA48303858
:1038C00005F0A7FD0028F9D14FF000600090F748FF
:1038D0000190F7480290002003904FF4807004900C
:1038E000002005904FF4806006900020079008901B
:1038F00009904FF480300A9000200B9003200C9028
:1039000000200D900E906946E748303805F0FAFC2B
:103910000121E548303805F02FFD4FF48050E5498E
:10392000088016B010BD1CB519F082FF40F224418A
:10393000DE48001F04F0DAFC90B30021DA4830388A
:1039400005F01AFDD948001F0488001D0488D648D8
:10395000303805F034FDC0F5807084B274B1224671
:10396000D349D54820F0FBF9082C07D101A8002342
:103970002246D1490090D1481DF0DCFFD049CA4809
:10398000303805F072FD4FF48071C748303805F0CB
:1039900014FD0121C448303805F0EEFC19F059FF40
:1039A0001CBD10B596B004460121084603F0CEFABE
:1039B0000121C80403F013FB0121480503F0C6FAF6
:1039C00008220021BF4803F0AEF808220121BD48BB
:1039D00003F0A9F80320149002208DF854008DF80C
:1039E000550000208DF8560001208DF8570014A9CD
:1039F000B44803F00DF80820149001208DF854000D
:103A000000208DF8560003208DF8550001208DF818
:103A1000570014A9AB4802F0FBFF10940020ADF84A
:103A20004400ADF84600ADF84800ADF84C000C205D
:103A3000ADF84A0010A9A44804F0DFFA0121A24819
:103A400004F063FB012240F224419F4804F013FC80
:103A500034208DF83C0004208DF83D0003208DF8C3
:103A60003E0001208DF83F000FA802F0E0FE012289
:103A70008021954804F0F6FB01224021924804F091
:103A8000F1FB8948183005F09BFB00BF86481830D1
:103A900005F0BFFC0028F9D14FF0006000908A4883
:103AA000001D0190894802904020039080000490FE
:103AB000002005904FF48060069000200790089049
:103AC00009904FF480300A9000200B9003200C9056
:103AD00000200D900E9069467348183005F012FCD6
:103AE0007148183805F06CFB00BF6F48183805F0B6
:103AF00090FC0028F9D14FF0006000907248001D42
:103B0000019073480290002003904FF4807004905D
:103B1000002005904FF480600690002007900890E8
:103B200009904FF480300A9000200B9003200C90F5
:103B300000200D900E9069465B48183805F0E2FBB6
:103B400001215948183805F017FC08205D49088301
:103B500016B010BD1CB519F06BFE40F224415A4856
:103B600004F0C4FB88B300214F48183805F004FC6A
:103B700055480488001D04884B48183805F01FFC80
:103B8000C0F5807084B274B122465149514820F08A
:103B9000E6F8082C07D101A8002322464D490090E1
:103BA00046481DF0C7FE4C493F48183805F05DFCFB
:103BB0004FF480713C48183805F0FFFB01213A486A
:103BC000183805F0D9FB19F044FE1CBD10B596B0AD
:103BD00004460121042003F0B9F90121082003F073
:103BE000B5F90121080503F0FAF90121480503F0B0
:103BF000ADF908220C21394802F095FF0822022174
:103C0000374802F090FF4FF48050149002208DF856
:103C100054008DF8550000208DF8560001208DF8D5
:103C2000570014A92D4802F0F3FE0420149002203E
:103C30008DF854008DF8550000208DF856000120B5
:103C40008DF8570014A9264802F0E2FE10940020D7
:103C5000ADF84400ADF84600ADF84800ADF84C00B2
:103C60000C20ADF84A0010A91E4804F0C6F9012145
:103C70001C4804F04AFA012240F22441194804F099
:103C8000FAFA35208DF83C0003208DF83D008DF8C0
:103C90003E0001208DF83F000FA802F0C8FD012270
:103CA0008021104820E00000586002400448004095
:103CB0000E2B00201804024022320020382300205E
:103CC000400F001000000240004C00400E2C00206D
:103CD0000E2D00202233002000003D10000802407D
:103CE000000C02400050004004F0BCFA01224021C8
:103CF000FE4804F0B7FAFE4805F062FA00BFFC483F
:103D000005F087FB0028FAD14FF000600090F748DB
:103D1000001D0190F748029040200390800004901D
:103D2000002005904FF480600690002007900890D6
:103D300009904FF480300A9000200B9003200C90E3
:103D400000200D900E906946E94805F0DBFAE8483E
:103D5000A83805F035FA00BFE548A83805F059FB4A
:103D60000028F9D14FF000600090E048001D01905C
:103D7000E1480290002003904FF4807004900020EE
:103D800005904FF4806006900020079008900990FD
:103D90004FF480300A9000200B9003200C900020FC
:103DA0000D900E906946D248A83805F0ABFA012173
:103DB000CF48A83805F0E0FA16B010BD1CB519F0D0
:103DC00037FD40F22441C94804F090FA80B3002145
:103DD000C748A83805F0D0FAC44804888488C44885
:103DE000A83805F0ECFAC0F5807084B274B12246B0
:103DF000C149C2481FF0B3FF082C07D101A8002316
:103E00002246BE490090BE481DF094FDBD49B84809
:103E1000A83805F02AFB4FF48071B548A83805F0A2
:103E2000CCFA0121B248A83805F0A6FA19F011FD24
:103E30001CBD10B596B004460121042003F086F89D
:103E40000121402003F082F80121202003F0D8F85E
:103E50000121880503F07AF808220621AA4802F019
:103E600062FE08220721A84802F05DFEC0201490DF
:103E700002208DF854008DF8550000208DF8560072
:103E800001208DF8570014A99F4802F0C1FD4FF49E
:103E90008070149001208DF8540000208DF8560099
:103EA00003208DF8550001208DF8570014A997487C
:103EB00002F0AEFD10940020ADF84400ADF84600CD
:103EC000ADF84800ADF84C000C20ADF84A0010A940
:103ED0008F4804F092F801218D4804F016F9012270
:103EE00040F224418A4804F0C6F947208DF83C008E
:103EF00004208DF83D0003208DF83E0001208DF850
:103F00003F000FA802F093FC01228021804804F0BA
:103F1000A9F9012240217E4804F0A4F97D4805F06A
:103F20004FF900BF7B4805F074FA0028FAD14FF032
:103F3000206000907648001D019077480290402054
:103F4000039080000490002005904FF4806006905C
:103F500000200790089009904FF480300A900020CC
:103F60000B9003200C9000200D900E90694669483C
:103F700005F0C8F96748783805F022F900BF6548B0
:103F8000783805F046FA0028F9D14FF0206000900B
:103F90005F48001D019061480290002003904FF49B
:103FA00080700490002005904FF4806006900020FF
:103FB0000790089009904FF480300A9000200B90F1
:103FC00003200C9000200D900E90694651487838DF
:103FD00005F098F901214F48783805F0CDF94FF4F4
:103FE00080704A491831088016B010BD1CB519F010
:103FF0001FFC40F22441464804F078F988B30021C0
:104000004448783805F0B8F941480488001D048810
:104010004048783805F0D3F9C0F5807084B274B1A7
:1040200022463E493E481FF09AFE082C07D101A8BF
:10403000002322463A49009031481DF07BFC394963
:104040003448783805F011FA4FF4807131487838E7
:1040500005F0B3F901212F48783805F08DF919F0F2
:10406000F8FB1CBD70B504460D461646012C2AD13E
:1040700000211F48183805F07FF900BF1C48183888
:1040800005F0C7F90028F9D127491948183805F073
:10409000ECF917480C3805601548B838C0F8A4602A
:1040A00001211348183805F067F904E01E4910484B
:1040B000183805F0DAF91C490D48183805F0B9F937
:1040C0000028F3D1C6E0042C4AD10021084805F0AD
:1040D00053F900BF064805F09CF90028FAD14FF0CB
:1040E0002051034805F0C1F901481FE0005000408D
:1040F000B86002400E2E00200E2F00203633002024
:10410000382300203D0080100008024000180240C3
:1041100000140140A06402400E3000200E31002047
:104120004A330020400F0010000020200C300560B2
:10413000FE48C0F8BC600121FC48B83005F01CF90D
:1041400005E04FF02051F948B83005F08EF94FF0F6
:104150002051F648B83005F06CF90028F1D179E02B
:10416000022C23D10021F24805F006F900BFF048E7
:1041700005F04FF90028FAD1EE49ED4805F075F940
:10418000EB480C300560EA48001D06600121001F65
:1041900005F0F2F803E0E749E54805F066F9E5497E
:1041A000E34805F046F90028F5D153E0052C29D164
:1041B0000021DE48583005F0DFF800BFDB485830FA
:1041C00005F027F90028F9D14FF0C051D7485830F1
:1041D00005F04BF9D5484566C6650121D3485830EE
:1041E00005F0CAF805E04FF0C051D048583005F04E
:1041F0003CF94FF0C051CD48583005F01AF900286D
:10420000F1D127E0062C25D10021C848703005F0F7
:10421000B3F800BFC548703005F0FBF80028F9D1AD
:10422000C549C248703005F020F9C048C5674667E7
:104230000121BE48703005F09FF804E0BE49BB483C
:10424000703005F012F9BC49B848703005F0F1F84B
:104250000028F3D170BD70B505460C461646042DF6
:1042600011D10BE000BF4021B44804F029F8002828
:10427000F9D014F8011BB14803F072FF301EA6F10B
:104280000101CEB2EED1022D11D10BE000BF4021D1
:10429000AB4804F015F80028F9D014F8011BA84821
:1042A00003F05EFF301EA6F10101CEB2EED170BD6B
:1042B00010B5130A0C8803550B885B1CC2540B887D
:1042C0009B1C0B8010BD2DE9F041C2B0074688460B
:1042D00016460025002400BF2CE0785D00098DF80B
:1042E0000401785D00F00F008DF80501002418E04E
:1042F00041A8005D0A2805DA41A8005D303041A9D7
:1043000008550DE041A8005D102805DA41A8005DC0
:10431000373041A9085503E0002042B0BDE8F081E4
:10432000641C022CE4DB01A800EB4500BDF804117D
:1043300001806D1CB542D0DB002001AA02F81600F6
:10434000720001A940461FF00AFD002008F816007F
:104350000120E2E730B502460C460021134603E097
:1043600013F8015B681881B2201EA4F10105ECB2BC
:10437000F6DCC8B230BDF8B5054606200090002432
:104380004FF480716F481FF051FD4FF480716E48FB
:104390001FF02AFD77206B490870882048700220A2
:1043A00088700120C870084605716848027869461F
:1043B0006448FFF77DFF6648007840B903226946EC
:1043C0006048FFF775FF01206149087007E004228B
:1043D00069465C48FFF76CFF00205D4908705D4846
:1043E000027869465748FFF763FF5B4802886946D1
:1043F0005448FFF75DFF584840880A2190FBF1F0D0
:1044000086B2324669464F48FFF752FF5248408B0A
:104410000A2190FBF1F086B2324669464948FFF71F
:1044200047FF4D4880884C49C98848434FF47A710A
:1044300090FBF1F04849C8610846808B82B269461A
:104440004048FFF735FF4448828869463D48FFF7FA
:104450002FFF4148C0880A2190FBF1F086B2324616
:1044600069463848FFF724FF3B4800890A2190FB42
:10447000F1F086B2324669463248FFF719FF3648F6
:10448000428969462F48FFF713FF334880890A2184
:1044900090FBF1F086B2324669462A48FFF708FFE2
:1044A0002D48C0890A2190FBF1F086B23246694658
:1044B0002448FFF7FDFE2848008A0A2190FBF1F00E
:1044C00086B2324669461F48FFF7F2FE2248827CD8
:1044D00069461C48FFF7ECFE1F48C27C6946194834
:1044E000FFF7E6FE1C48027D69461648FFF7E0FE2E
:1044F0001948427D69461348FFF7DAFE1648827D67
:1045000069461048FFF7D4FE1348428C69460D48AF
:10451000FFF7CEFE1048828C69460A48FFF7C8FEB6
:104520000D48C28C6946074818E000000060024050
:10453000A064024000002020200000200050004025
:1045400000140140700000205E3300206500002050
:10455000700100206400002074270020FFF7A8FEEF
:104560004948028D69464948FFF7A2FE4648428DF8
:1045700069464648FFF79CFE4348808C082101EAC3
:10458000202028B1092042490870032041490870C1
:104590003D48C08C082101EA202028B109203C496F
:1045A000087003203B490870BDF80000801F3749A0
:1045B0004871BDF80000801FC1B23448801DFFF76C
:1045C000C9FE3249BDF800208854BDF80000401CE7
:1045D00084B2224630492D48FFF775FE4FF6FF7032
:1045E00000EA44022C490120FFF73CFD28480078EE
:1045F00098B92A48007880B92348408CC0F300203D
:1046000010B10120234908701F48408C022101EAA3
:10461000202010B100201F490870F8BD10B50446D5
:104620004FF4807119481FF001FC4FF480711A4853
:104630001FF0DAFB772015490870882048700220A7
:1046400088700120C870202C01D0212C07D10F4880
:10465000047100200D4948718871C87109E0232C4C
:1046600007D10A4804710120084948718871002067
:10467000C871082208490548FFF725FE102206499F
:104680000120FFF7EFFC10BD742700207000002010
:1046900063000020650000205E33002064000020DD
:1046A0000020FE490860091D0860091D0860091DF9
:1046B0000860FA4924310860091D0860091D086076
:1046C000F748F649383108600020091D0860704736
:1046D00001460020012900D011B9F24B197000E009
:1046E000262070470146ED4A121D106820F0FF0099
:1046F00008431060704770B5044606E0E748343060
:10470000056805F0450000B100E0F7E700BF0420B0
:1047100005F00AFD20B1042005F011FD032070BD55
:10472000012005F001FD20B1012005F008FD012068
:10473000F5E7DA4810300068A04201D01020EEE71B
:1047400040F2FF5005F0FBFCD4481430006808210B
:104750000840C0B2E3E72DE9FC4107460D460026BC
:1047600000240020009001900820CF49086010200C
:104770004860402088600020C8604FF48060086175
:10478000084605F03EFC1020FFF7B5FF044614B1C3
:104790002046BDE8FC81C54800880004C249086085
:1047A00037204860402088600020C8604FF4806057
:1047B0000861084605F025FC3720FFF79CFF0446FA
:1047C0000CB12046E5E74FF0FF30B94908600820FA
:1047D0004860302088600220C86000200861012005
:1047E0004861084605F039FC0020AF4908603320D5
:1047F0004860402088600020C8604FF480600861F5
:10480000084605F0FEFB3320FFF775FF04460CB1A8
:104810002046BEE70DE04FF4001005F085FC40B1E6
:104820009E48803000684DF82600761C022E00D38A
:1048300007E09A483430006840F22A6108400028B6
:10484000E9D000BF082005F06FFC20B1082005F07A
:1048500076FC04209DE7022005F066FC20B10220D2
:1048600005F06DFC022094E7202005F05DFC20B1EE
:10487000202005F064FC06208BE74FF4007005F063
:1048800053FC28B14FF4007005F059FC072080E775
:1048900040F2FF5005F053FC00980006009901F427
:1048A0007F4140EA0120009901F47F0140EA112094
:1048B000009940EA1160686001980006019901F4CE
:1048C0007F4140EA0120019901F47F0140EA112073
:1048D000019940EA1160286020465AE77CB50546F8
:1048E000002400200090019000260DB1022600E077
:1048F00000266A481430006800F0007008B10E20ED
:104900007CBD6A49098888B26946FFF724FF0446DE
:104910000CB12046F4E7019800F4802060B36348AE
:1049200000880004604908603720486040208860A3
:104930000020C8604FF480600861084605F061FB04
:104940003720FFF7D8FE04460CB12046D8E756487A
:104950000660062054494860402088600020C860F6
:104960004FF480600861084605F04BFB0620FFF716
:10497000C2FE04462046C3E72520C1E770B50446C1
:1049800000254C480078032802D12725284670BD11
:104990004848007838B147480078012803D0454896
:1049A0000078022819D1B4F5805F02D12725284666
:1049B000EDE7E0B2FFF792FF054675B93748001DF5
:1049C000006820F4C0503549091D08600846006899
:1049D000204308600846006808602846D7E710B5FD
:1049E00004463148046007202F4948604020886011
:1049F0000020C8604FF480600861084605F001FBA4
:104A00000720FFF778FE10BDF0B501460020002218
:104A1000284B1B7881F85630244B1B88A1F8543062
:104A2000254B1B681A0E93090B70C2F383034B705E
:104A300002F003038B70204B1B68C3F30742CA705C
:104A40001D4B1B88C3F307220A711B4B1A784A714E
:104A50005B681A0E1301CB80174B5B68C3F30742E8
:104A6000CB8843EA1213CB8002F00F030B72124B78
:104A70009B88C3F30722D3094B72C2F380138B7256
:104A8000C2F34013CB72C2F300130B7300234B73BA
:104A9000084B1B78C3B1074B1B780FE0002C01407B
:104AA000FF07C0007C01002078340020780100203E
:104AB0008C34002074010020A4340020012B03D08A
:104AC000FE4B1B78032B4FD193071B0D0B61FC4B47
:104AD0001A790B6943EA82030B61F94B9B681A0E42
:104AE0000B6943EA92130B61C2F3C2030B7502F028
:104AF00007034B75F24B9B68C3F3074253098B7551
:104B0000C2F38203CB7593075B0F0B76EC4B1B89CB
:104B1000C3F307220B7E43EAD2130B760B695B1CAF
:104B20000024C1E912340B7E9B1C012606FA03F314
:104B3000DE17D1E91245A4FB037C05FB03C304FB8C
:104B40000633C1E912730C7A0123A3400B650024DC
:104B5000D1E912560B6DA5FB037C06FB03C305FBD5
:104B60000433C1E912732CE0D44B1B78022B28D1FB
:104B7000D34B1A7993069B0A0B61D14B9B681A0E93
:104B80000B6943EA02230B61CD4B9B68C3F30742D9
:104B90000B6913430B61CA4B1B89C3F307220B69D3
:104BA0005B1C4FF40074A3FB043566000027A3FBD5
:104BB000064C05FB06C503FB0753C1E912437310FE
:104BC0000B65C2F3801301F8193F93065B0E4B701F
:104BD000BB4B1A7A4B7843EAD2134B7002F07F0337
:104BE0008B70B74BDB681A0ED309CB70C2F341133D
:104BF0000B71C2F382034B7193071B0F8B71B04B88
:104C0000DB68C3F307428B7943EA92138B71C2F3DB
:104C10004013CB7100230B7202F001034B72A84BBF
:104C20009B89C3F30722D3098B72C2F38013CB7223
:104C3000C2F340130B73C2F300134B73C2F381032F
:104C40008B7302F00303CB739D4B1A7B53080B74D9
:104C500001234B749B4B1B681A0ECA741939994B6C
:104C60001B68C3F307421402CC85964B1B88C3F321
:104C70000722CB8D1343CB85924B1A7814060C6315
:104C80005B681A0E0B6B43EA02440C638D4B5B6846
:104C9000C3F307420B6B43EA02240C63894B9B88E6
:104CA000C3F307220B6B13430B63864B1A79342330
:104CB0005A54844B9B681A0E35235A54814B9B6877
:104CC000C3F3074214068C637E4B1B89C3F3072290
:104CD0008B6B43EA02448C637A4B1A7A8B6B43EA00
:104CE00002248C63774BDB681A0E8B6B13438B6348
:104CF000744BDB68C3F307423C235B5C43EA12144A
:104D00003C235C5413071C0DCC876E4B9B89C3F36B
:104D10000722CB8F1343CB876A4B1A7B540840235F
:104D20005C54012441235C54F0BD70B500264FF45F
:104D3000803505E06448046804F0450000B103E0F4
:104D4000281EA5F10105F5D100BF15B104F004003E
:104D500028B10326042005F0F2F9304670BD012089
:104D600005F0E2F918B10126012005F0E8F940F25A
:104D7000FF5005F0E4F93046F0E72DE9F041054633
:104D80000E464FF0000805E04F48076807F0450061
:104D900000B100E0F8E700BF042005F0C5F928B134
:104DA000042005F0CCF90320BDE8F081012005F0D6
:104DB000BBF920B1012005F0C2F90120F4E7424817
:104DC00024380068A84201D01020EDE740F2FF50DF
:104DD00005F0B5F93C482038046804F4604018B97F
:104DE000200C30804046DFE704F4005008B1132067
:104DF000DAE704F4804008B11020D5E704F400405D
:104E000008B10F20D0E74046CEE738B50024012096
:104E1000009005F0F0F810B92524204638BD274849
:104E20000078042825D00020284908600220486026
:104E3000C02088600020C8604FF480600861084688
:104E400005F0DFF8FFF771FF04460CB12046E5E7F7
:104E50001D48203800681B4908601B481C38006842
:104E60004860194818380068886017481438006886
:104E7000C8601248007858B110480078012807D05F
:104E80000E480078062803D00C480078022821D16B
:104E900000200E4908600320486040208860002000
:104EA000C8604FF480600861084605F0AAF86946BA
:104EB0000320FFF762FF044664B109E0740100209B
:104EC000A4340020B4340020342C01407834002075
:104ED0002046A3E7FE480078032816D1BDF800005D
:104EE0000004FC49086003204860402088600020DE
:104EF000C8604FF480600861084605F082F8FFF74B
:104F000014FF04460CB1204688E7F14800780428D5
:104F10002AD0BDF80000F0490860BDF80000000488
:104F2000EC49086009204860C02088600020C86003
:104F30004FF480600861084605F063F8FFF7F5FE5E
:104F400004460CB1204669E7E4480068E44908607B
:104F5000E248001D00684860E0480830006888604A
:104F6000DE480C300068C860002057E710B506E046
:104F7000DA482030046804F0450000B100E0F7E7AB
:104F800000BF042005F0D0F820B1042005F0D7F8C8
:104F9000032010BD40F2FF5005F0D1F80020F8E7E3
:104FA00070B500264FF4803506E0CC482030046808
:104FB00004F0450000B103E0281EA5F10105F4D17D
:104FC00000BF15B104F0040028B10326042005F049
:104FD000B6F8304670BD04F0400018B100264020FD
:104FE00005F0ADF83046F5E770B500254FF4803494
:104FF00004E0802005F098F800B103E0201EA4F141
:105000000104F6D100BF0CB9032070BD40F2FF507F
:1050100005F095F82846F8E72DE9F0470027002429
:1050200000260025A046A1467620AE49087500203E
:10503000086048608860C8600861084604F0B7FFEF
:10504000032004F0D4FFA5481038006840F48070B5
:10505000A2491039086000BF12E000209D49086095
:1050600048608860C8604FF480600861084604F0BA
:10507000C8FFFFF7B9FF044604B903E0781CC7B2C4
:105080004A2FEADB00BF14B12046BDE8F0874FF499
:10509000D570904908600820486040208860002052
:1050A000C8604FF480600861084604F0AAFFFFF76B
:1050B00077FF044624B90120854908704FF08049E4
:1050C0000020844908603720486040208860002024
:1050D000C8604FF480600861084604F092FF3720F2
:1050E000FFF709FB0446002C4BD134E0002079493E
:1050F000086037204860402088600020C8604FF476
:1051000080600861084604F07CFF3720FFF7F3FA5F
:1051100004460CB12046B8E7734849EA00006D49DF
:10512000086029204860402088600020C8604FF453
:1051300080600861084604F064FFFFF717FF04462B
:105140000CB12046A1E765480668012080EAD670C8
:1051500080F001086D1CB8F1000F03D14FF6FF700D
:105160008542C3D34FF6FF70854202D31B242046ED
:105170008BE706F08040061E32D0022054490870AA
:105180002EE01CE059485349086001204860402047
:1051900088600020C8604FF480600861084604F011
:1051A00030FFFFF7E3FE04460CB120466DE74B48A5
:1051B0000668012080EAD67080F001086D1CB8F105
:1051C000000F03D14FF6FF708542DBD34FF6FF701F
:1051D000854202D31B24204657E703203C49087030
:1051E000204652E73EB5002400250121404801F049
:1051F000ADFE0121C80201F003FF0121C80201F048
:1052000054FF4FF4F850019002208DF808008DF8FB
:10521000090000208DF80A0001208DF80B0001A97B
:10522000344801F0F5FB0420019001A9324801F057
:10523000EFFB0C2208212F4801F075FC0C220921FC
:105240002C4801F070FC0C220A212A4801F06BFC6A
:105250000C220B21274801F066FC0C221146254840
:1052600001F061FC0C220221234801F05CFC0021CA
:105270004FF4006001F019FFFFF712FA31208DF8AA
:10528000000000208DF801008DF8020001208DF84B
:105290000300684601F0CBFAFFF7BEFE044614B9DE
:1052A000FFF7B3FD04461CB91448FFF7ADFB0446F5
:1052B00034B91249B1F854100804FFF790FB0446C2
:1052C00024B94FF40060FFF759FB0446E4B117E03E
:1052D000740100207834002078010020142C014053
:1052E000A434002060340020000010800080FF8083
:1052F0000C00400000080240000C0240C8340020AE
:10530000FE480078032812D1FD4890F8560020B1DD
:10531000FB4890F85600012801D1022500E0002545
:105320002846FFF7DFF90020FFF7D2F904462046B0
:105330003EBD10B5002004F05AFE002010BD70B52F
:1053400090B004460E46154600BFEE4804F061F8E2
:105350000028FAD1EB4803F033FF4FF000600190D2
:10536000E9480290039404950020059006904FF4BC
:1053700080600790800008908000099000200A90CB
:105380004FF440300B9004200C9003200D904FF40C
:1053900000000E9080100F9001A9DA4803F0B2FFD0
:1053A0002021D84803F0FEFF0121D64803F0E4FF96
:1053B00010B070BD0146002002E04910421CD0B27E
:1053C0000129FAD170472DE9F84F814617469846D2
:1053D0000A9C4FF0000AD3464D464FF0FF36B9F114
:1053E000000F02D12620BDE8F88F0020C6495439AD
:1053F0000860C2480078022805D10402780A40EA11
:10540000C8574FEA68280020C04988604860401E9D
:105410000860012048610020C8600861084604F067
:105420001CFEB9486C38006800F0007008B10E200E
:10543000D9E7002C21DDB4F5006F1EDC601E204092
:10544000D8B92046FFF7B6FF0090B148046010209D
:10545000AF494860402088600020C8604FF48060F9
:105460000861084604F0CDFD1020FFF744F982469C
:10547000BAF1000F03D05046B5E72620B3E70098F5
:105480000001A2498860084644604FF0FF30086080
:10549000012048610220C86000200861084604F02D
:1054A000DCFD9B48076011209949486040208860D6
:1054B0000020C8604FF480600861084604F0A1FD38
:1054C0001120FFF718F98246BAF1000F01D05046BB
:1054D00089E79048007800285AD1FAF7DAFE17E0F9
:1054E0004FF4004004F020FE70B14FF0000B05E0D7
:1054F0008548006845F82B000BF1010BBBF1080F44
:10550000F6D32035844E03E00EB904206BE7761EF7
:105510007D484C38006840F22A6108400028DFD0FE
:10552000082004F001FE20B1082004F008FE042049
:1055300059E7022004F0F8FD20B1022004F0FFFD3D
:10554000022050E7202004F0EFFD20B1202004F0DD
:10555000F6FD062047E74FF4007004F0E5FD28B1A2
:105560004FF4007004F0EBFD07203CE703E06648D1
:10557000006828602D1D4FF4001004F0D5FD0028B0
:10558000F5D1FAF788FE40F2FF5004F0D8FD39E07B
:1055900060480078012835D10020604908706049D2
:1055A00008706049087058484438006840F22A3151
:1055B000084355494439086053485438006840F05E
:1055C0000800514954390860002221464846FFF737
:1055D000B6FE00E0761E4B485838006800F00060C8
:1055E00038B95048007820B94C48007808B9002EE6
:1055F000F0D10EB90420F6E64848007810B14748CB
:1056000090F800A05046EEE62DE9FF5F1746984659
:10561000DDE90E464FF00009CA464FF0FF3542491A
:1056200000980860002038495439086033480078F1
:10563000022805D10402780A40EAC8574FEA6828D0
:105640000020324988604860401E0860012048619F
:105650000020C8600861084604F0FFFC2A486C3846
:10566000006800F0007018B10E2004B0BDE8F09F93
:10567000002C21DDB4F5006F1EDC601E2040D8B97F
:105680002046FFF797FE83462148046010202049FA
:105690004860402088600020C8604FF48060086146
:1056A000084604F0AEFC1020FFF725F88146B9F15A
:1056B000000F03D04846D8E72620D6E7012E6ED942
:1056C00006FB04F0B0F1007F01D32620CDE74FEABE
:1056D0000B100E49886006FB04F048604FF0FF3065
:1056E0000860012048610220C86000200861084667
:1056F00004F0B3FC06480760122017E07401002094
:10570000C834002058640240802C01408C340020B2
:10571000783400207C010020FFFF7F007E01002004
:105720007D0100207F01002080010020F9494860B0
:10573000402088600020C8604FF4806008610846FF
:1057400004F05FFC1220FEF7D6FF8146B9F1000F8E
:1057500001D0484689E7F048007800287ED1FAF762
:1057600098FD1EE04FF4004004F0DEFCA0B14FF0C5
:10577000000A07E0E9480068E949096841F82A0099
:105780000AF1010ABAF1080FF4D3E54800682030A5
:10579000E3490860E34D04E015B9042065E7AEE095
:1057A0006D1EDE484C38006840F22A31084000285F
:1057B000D8D0082004F0B8FC20B1082004F0BFFCC9
:1057C000042052E7022004F0AFFC20B1022004F0D4
:1057D000B6FC022049E7202004F0A6FC20B12020DE
:1057E00004F0ADFC062040E74FF4007004F09CFC90
:1057F00028B14FF4007004F0A2FC072035E709E05F
:10580000C6480068C64909680860C5480068001DA8
:10581000C34908604FF4001004F086FC0028EFD163
:105820004FF4807004F080FC20B3BF48007838B19A
:10583000BD480078012803D0BB480078022819D160
:105840000020B44908600C20486040208860002097
:10585000C8604FF480600861084600E011E004F081
:10586000D0FB0C20FEF747FF8146B9F1000F01D0B5
:105870004846FAE6FAF70FFD40F2FF5004F05FFCED
:105880003DE0A5480078012839D10020A7490870DB
:105890000120A74908700020A64908709F48443895
:1058A000006840F22A3108439C49443908609B480B
:1058B0005438006840F0080098495439086006FBE5
:1058C00004F100220098FFF73AFD00E06D1E9A48AF
:1058D000006800F0006008B9002DF7D10DB9042070
:1058E000C3E600BF9348007818B9904800780028B4
:1058F000F8D08E48007810B18C4890F80090484657
:10590000B3E61CB504460020019000908B48008847
:105910000004804908600D20486040208860002015
:10592000C8604FF480600861084604F06AFB7B4859
:105930004C380068009003E078484C3800680090CC
:10594000009800F045000028F6D0012004F0ECFBA0
:1059500020B1012004F0F3FB01201CBD042004F061
:10596000E3FB20B1042004F0EAFB0320F5E76B48D9
:10597000703800680D2801D01020EEE740F2FF508B
:1059800004F0DDFB65486C38006801900198C0F3B5
:10599000432020700020E0E72DE9FF5F86B0174626
:1059A0009846149D0026002005900490002481460E
:1059B0000390824602900195DDF818B0DDF818B02A
:1059C000BBF1000F03D126200AB0BDE8F09F0020F4
:1059D0005249543908605A4988604860401E08603E
:1059E000012048610020C8600861084604F035FBCA
:1059F0004A486C38006800F0007008B10E20E3E7F8
:105A000049480078022805D10502780A40EAC857BB
:105A10004FEA6828002D1FDDB5F5006F1CDC681EFD
:105A20002840C8B92846FFF7C5FC059039480560ED
:105A3000102038494860402088600020C8604FF43A
:105A400080600861084604F0DCFA1020FEF753FE7F
:105A500006461EB13046B7E72620B5E7374800882E
:105A600000042C4908600D20486040208860002018
:105A7000C8604FF480600861084604F0C2FA0D2047
:105A8000FEF739FE06460EB130469DE723486C38D6
:105A9000006803904FF0FF341CE0641E2748008824
:105AA00000041C4908600D204860402088600020E8
:105AB000C8604FF480600861084604F0A2FA0D2027
:105AC000FEF719FE06460EB130467DE713486C38E6
:105AD00000680390039800F4807008B9002CDCD1B2
