:020000040800F2
:1000000058DA0120CD6900089D0F00089F0F0008F5
:10001000A30F0008A70F0008AB0F000800000000A6
:10002000000000000000000000000000DF69000880
:10003000AF0F0008000000003B43020881A3000846
:10004000E7690008E7690008E7690008E769000850
:10005000E7690008E7690008E7690008E769000840
:10006000E7690008E7690008E7690008E769000830
:10007000E7690008E7690008E7690008E769000820
:10008000E7690008E7690008E7690008E769000810
:10009000ED190008E7690008E7690008E76900084A
:1000A000E7690008E7690008E7690008E7690008F0
:1000B000E769000819120008E7690008E769000805
:1000C000E7690008E7690008E7690008E7690008D0
:1000D000E7690008E7690008B73800081B3B00081B
:1000E000E7690008E7690008E7690008E7690008B0
:1000F000E7690008E7690008E7690008E7690008A0
:10010000E769000825640008E7690008E769000856
:10011000493D0008B13F0008E7690008E7690008A9
:10012000E7690008E7690008E7690008E76900086F
:10013000E7690008E5130008E7690008E7690008B7
:100140008F1B0008E7690008E7690008E7690008F5
:10015000E7690008E7690008E7690008E14100086D
:10016000E7690008E7690008E7690008E76900082F
:10017000E7690008E7690008E7690008E76900081F
:10018000E7690008E769000800F002F800F070F87D
:100190000AA090E8000C82448344AAF10107DA45E2
:1001A00001D100F065F8AFF2090EBAE80F0013F0C4
:1001B000010F18BFFB1A43F001031847E8F70400CA
:1001C00008F804000A444FF0000C10F8013B13F04B
:1001D000070408BF10F8014B1D1108BF10F8015BA0
:1001E000641E05D010F8016B641E01F8016BF9D193
:1001F00013F0080F1EBF10F8014BAD1C0C1B09D1EA
:100200006D1E58BF01F801CBFAD505E014F8016B5B
:1002100001F8016B6D1EF9D59142D6D370470000ED
:100220000023002400250026103A28BF78C1FBD8FF
:10023000520728BF30C148BF0B607047642923F0C4
:100240000F85782923F04885732923F0DC87002067
:1002500070471FB524F0CAF823F048FF04000020BF
:10026000002124F0ADF8401C60601FBD10B510BD2A
:1002700024F01AF81146FFF7ECFF00F0C1FD24F05E
:1002800038F803B4FFF7F2FF03BC03F0DFF9000016
:1002900030BF72B6704762B6704780F30888704707
:1002A0000EB508E002A8002301AA194600901846DE
:1002B00021F07AFA00BFF5E77CB50025FEA103C95D
:1002C000CDE90001002411E06B460622042129201B
:1002D00001F0D3FC0546EA00F949FA48006801F04C
:1002E000A2FF64200AF0B2F8601CC4B2F648408C49
:1002F000022101EA2020022801D00A2CE4DBF24886
:10030000408C022101EA2020B0B18020EF49088012
:100310000A200AF09BF8212004F073FA0A200AF060
:1003200095F88020E949891E08800020E849087076
:10033000E8490870E84908707CBD86B0002002904A
:10034000039005A9E54822F05EFF05A9E44822F0E4
:100350005AFFF1E005A8002304AA194600901846A8
:1003600021F022FA0446BDF8140000287ED120783E
:100370005528FBD160786628F8D12079122864D0FE
:1003800004DC102807D0112871D12AE013282ED0C0
:100390002028F9D16CE08020CC4908800A200AF09E
:1003A00055F8202004F02DFA32200AF04FF8802072
:1003B000C649891E088002208DF8080005A8002380
:1003C000032202A90090C74821F0A8FB05A8082134
:1003D00032230022CDE900101146104622F06DFBB9
:1003E000A3E00320C0490870FFF766FF9DE0A179F4
:1003F000E07901F0A1F900EB80004FF6FF7101EA0E
:100400004000BA498880217A607A01F095F900EBC2
:1004100080004FF6FF7101EA4000B449C880052012
:100420008DF8080005A80023032202A90090AD481A
:1004300021F074FB05A8082132230022CDE9001029
:100440001146104622F039FB6FE080209F4908805A
:100450000A2009F0FBFF222004F087F80A2009F0A7
:10046000F5FF80209949891E08805EE05EE05BE030
:100470006079012806D0022819D003282CD004283E
:100480004FD13BE04FF48070994908800A2009F071
:10049000DDFF0A229749022003F0DEFE322009F038
:1004A000D5FF4FF480709249891E08803AE04FF4DE
:1004B0008050914908800A2009F0C8FF0A228D491E
:1004C000052003F0C9FE322009F0C0FF4FF4805030
:1004D0008949891E088025E00820884948830A2028
:1004E00009F0B4FF0A228349062003F0B5FE32204A
:1004F00009F0ACFF08208149088313E0802073498C
:1005000008800A2009F0A2FF0A227A49012003F09C
:10051000A3FE322009F09AFF80206C49891E0880D2
:1005200000E000BF00BF00E000BF00BF4FF4FA7062
:1005300009F08CFF06F000F90CE70EB508E002A800
:10054000002301AA19460090184621F02DF900BF9A
:10055000F5E70BE002F0CEF902F005FA02F019FA25
:100560004FF4FA7009F072FF06F0E6F8F2E786B091
:1005700000200490059037E002F0B9FB5A4800785B
:10058000022813D18DF8100003A80023032204A928
:100590000090544821F0C2FA03A808213223002217
:1005A000CDE900101146104622F087FA4E48007837
:1005B000032813D18DF8100003A80023032204A9F7
:1005C0000090484821F0AAFA03A80821322300220B
:1005D000CDE900101146104622F06FFA4FF4FA7080
:1005E00009F034FF06F0A8F8C6E72DE9F04FADF2A8
:1005F000944D002401209A900020989099904FF4F7
:10060000007118A823F006FD3DA198A823F0C4FAB4
:100610002D48008A642190FBF1F52B48C08990FB9E
:10062000F1F62948808990FBF1F7274840890A2193
:1006300090FBF1F824480089642190FBF1F92248ED
:10064000C08890FBF1FA204880880A2190FBF1FBDA
:100650001D48807D1C49497D1B4A127D1A4BDB7C5D
:10066000CDE91432CDE916101748807CCDE90CBADB
:10067000CDE90E98CDE91076CDE912501248428DA1
:10068000018DC08C104B9B8CCDE90830CDE90A124E
:100690000D48408C0F4909780D4A12780E4B1B7893
:1006A000CDE90432CDE9061016488079154949791B
:1006B000144A1279134B27E0000012D0000000000A
:1006C000DC27002040000020742700201A0C024084
:1006D0006300002064000020650000200C2700203B
:1006E000402700207422002066000020A027002060
:1006F0001A180240010000201A04024000000240C3
:100700004C6F670084010020DB78CDE90032CDE931
:100710000210FE4883780288FD4918A823F03CFAAD
:10072000FC4901220868FCA10BF09CFB04460CB1BB
:1007300000209A90122298A99BA80BF0BEFB0446B9
:100740000CB100209A909BA89E990BF0B5FE18A8BA
:1007500023F0DAFB0546F14B2A4618A99BA80BF0BB
:100760004CFD04460CB100209A909BA80BF092FE21
:1007700004460CB100209A909A980DF2944DBDE871
:10078000F08F10B506F006F9FFF72FFF044620465C
:1007900010BD38B500250024E148808800128DF88E
:1007A0000000DF4800798DF80100DD48C0880012A4
:1007B0008DF80200DA4880798DF803000020D849CE
:1007C000087211E06B4615220021262001F055FA2F
:1007D0000546EA00D349D448006801F024FD0A2008
:1007E00009F034FE601CC4B20A2C03DACC48007A4B
:1007F0000128E7D1CA48007A012823D10A2009F04C
:1008000025FE232003F0FDFF0C2009F01FFE23200E
:1008100003F0F7FF0E2009F019FE232003F0F1FF8B
:10082000102009F013FE232003F0EBFF122009F043
:100830000DFE232003F0E5FF142009F007FE23201E
:1008400003F0DFFF0A2009F001FE232003F0D9FFA7
:100850000C2009F0FBFD232003F0D3FF0E2009F04C
:10086000F5FD232003F0CDFF102009F0EFFD23203C
:1008700003F0C7FF122009F0E9FD232003F0C1FFB8
:10088000142009F0E3FD232003F0BBFF38BD7CB545
:100890000025AFF2DC1103C9CDE90001002411E00D
:1008A0006B4606220521292001F0E7F90546EA00FA
:1008B0009C499D48006801F0B6FC642009F0C6FD23
:1008C000601CC4B29948408CC0F3002008B90A2CBF
:1008D000E6DB9648408CC0F30020B0B180209449FC
:1008E00008800A2009F0B2FD202003F08AFF4FF4AF
:1008F000FA7009F0ABFD80208D49891E08800A201E
:1009000009F0A4FD01208B4908707CBD88B000244B
:10091000002004900590029003909EE007A8002319
:1009200006AA19460090184620F03EFF0546BDF87D
:100930001C0000287ED1287808287CD2DFE800F04F
:10094000041220232634374200231A461946282051
:1009500001F093F90446E20072497348006801F01F
:1009600062FC73E000231A461946202001F085F945
:100970000446E2006B496C48006801F054FC65E0F5
:10098000FFF785FF62E0FFF797FC5FE00023062298
:100990001946242001F071F90446E20061496248D9
:1009A000006801F040FC51E0FFF7F3FE4EE022202A
:1009B00003F0DBFD60480078022802D101205E4987
:1009C000087043E05B48007818B901208DF81000EA
:1009D00016E058480078012803D102208DF8100055
:1009E0000EE054480078022803D104208DF810004E
:1009F00006E050480078042802D108208DF8100045
:100A000000208DF811004D4800788DF812004B48F9
:100A10004078C0F3C0008DF8130000208DF814005A
:100A20008DF8150004AB0E220021332001F025F9CA
:100A3000044601E00BE008E0E2003A493A48006869
:100A400001F0F1FBFFF79DFE00E000BF00BF4FF497
:100A5000FA7009F0FBFC05F06FFE5FE73EB5044657
:100A60000D4607203649087002A800230322009093
:100A7000344821F053F802A8082132230022CDE99E
:100A800000101146104622F018F82F480088401C2C
:100A90002D4908803EBD3EB504460D4606202B4933
:100AA000087002A8002303220090264821F036F89F
:100AB00002A8082132230022CDE900101146104679
:100AC00021F0FBFF22480088401C214908803EBDE0
:100AD00030B58BB00446002500BF1BF051F90AA8C1
:100AE00020F04FF90AAA012108461DF029F90AA8A9
:100AF0000021AFF25D020223CDE90032CDE9021000
:100B000064230A4613A115482AE00000840100204E
:100B10004CF60408B8B50120303A0000E40100208A
:100B2000A0270020DC2700204000002074270020A0
:100B30001A0C0240650000206600002068000020BA
:100B400015000020742200201A0000201000002050
:100B500018000020746D7231000000000C27002086
:100B600022F08FF90AA80021AFF20F120223CDE97B
:100B70000032CDE902104FF496730A46D6A1D84848
:100B800022F07FF900BF00BF1BF032FA054600BF1C
:100B900000BF0AA8032100220A23CDE90532CDE9CE
:100BA000071018464FF480616622CE4BCDE9013222
:100BB000CDE9031010200023AFF2AF22CAA10090AC
:100BC000CC4820F02AFC0AA8032100220A23CDE900
:100BD0000532CDE90710184680210C22C64BCDE91D
:100BE0000132CDE903100E200023AFF27D62C3A1D4
:100BF0000090C54820F011FC0AA8032100220A2316
:100C0000CDE90532CDE90710184680210C22BF4BF3
:100C1000CDE90132CDE903100F200023AFF2CD6200
:100C2000BBA10090BD4820F0F8FB0AA803210022D8
:100C30000A23CDE90532CDE90710184680210C22A0
:100C4000B74BCDE9013200230092CDE90310AFF29A
:100C50001572B4A1B64820F0E0FB0AA803210022D7
:100C60000A23CDE90532CDE9071010464FF4807113
:100C70001922B04BCDE90132CDE903101120002338
:100C8000AFF64912ACA10090AE4820F0C6FB0AA80E
:100C9000032100220A23CDE90532CDE907101046D1
:100CA00080210C22A84BCDE90132CDE903100D20A3
:100CB0000023AFF61322A5A10090A74820F0ADFBBA
:100CC0000AA9A64821F069FB00BF00BF28461BF017
:100CD00093F900BF00BF0BB030BD10B50122002159
:100CE0009F4801F0D6FD9E480078AA2805D115221C
:100CF00001219C4801F0CDFD17E0AA209849087019
:100D000001220021964801F03AFC01209549087023
:100D100095A19448401C23F0D3F815220121914855
:100D200001F02DFC0A2009F091FB10BDF8B500265A
:100D300001F07CFF4FF4E13002F095FC4FF4E1301C
:100D400002F0F7FD4FF4165002F0DFFC4FF4E130F3
:100D500002F021FF4FF4165003F065F900F030FC6B
:100D6000642009F073FB002006231A460521009039
:100D700000F02DFC002512E000231A461946282019
:100D800000F07BFF0646F2007C497D48006801F0D8
:100D90004AFA4FF4FA7009F059FB681CC5B2032DEA
:100DA000EADB01F02FFB4FF4FA7009F04FFB01F082
:100DB000ACFBFFF792FF05F0C3FC05F0E5FD05F085
:100DC000E9FD642009F042FB002408E04FF4FA70CA
:100DD00009F03CFB601CC4B20A2C00DD03E004F007
:100DE000F5FA0028F2D100BF0CF0A4FE65490122FB
:100DF0000868AFF2DC210BF035F8FFF7C2FCF8BD54
:100E000010B58AB00024A82009F0C6FA4FF4A060FB
:100E100005F0FCFD002009F05EFB012009F05BFB02
:100E2000022009F058FBFFF781FF642009F00EFB58
:100E300009A81CF061FD00BF00BF1BF0D9F80446F3
:100E400000BF00BF09A8032100220592CDE90621B9
:100E50000890104680210C224B4BCDE90132CDE9A0
:100E6000031012200023AFF2973248A100903B48B4
:100E700020F0D3FA00BF00BF20461BF0BDF800BF32
:100E800000BF09A81CF0FCFF00200AB010BD7CB513
:100E90000025AFF2DC7103C9CDE90001002411E0A7
:100EA0006B4606220421292000F0E7FE0546EA00F1
:100EB00032493348006801F0B6F9642009F0C6FAF7
:100EC000601CC4B23448408C022101EA2020022870
:100ED00001D00A2CE4DB7CBD746D7232000000008E
:100EE00040270020B005002043616E207461736BC1
:100EF0000000000074220020B00300207363616EC4
:100F0000207461736B000000B0210020B01D002030
:100F100068616E646C65207461736B0084250020C9
:100F2000B01B00206D65746572207461736B0000E6
:100F3000FC230020B017002073637265656E207477
:100F400061736B0038230020B0150020706C6320A3
:100F50007461736B00000000C0240020482600204C
:100F60000000002098030020323032323039303512
:100F70005F4830315F53303100000000DC27002033
:100F800040000020B8B50120B01F002073746172CA
:100F900074207461736B000074270020704700BFD9
:100FA000FEE700BFFEE700BFFEE700BFFEE77047B9
:100FB0000CB50020019000907648006840F4803025
:100FC0007449086000BF7348006800F40030009066
:100FD0000198401C0190009818B90198B0F5A04FF5
:100FE000F1D16C48006800F4003010B1012000908D
:100FF00001E0002000900098012846D1654840306B
:10100000006840F0805063494031086062480068E1
:1010100040F44040604908605E48083000685D491F
:10102000083108600846006840F40040086008463F
:10103000006840F4A05008605848091F0860081F65
:10104000006840F08070091F086000BF51480068C8
:1010500000F000700028F9D040F205705049086097
:101060004C480830006820F003004A490831086005
:101070000846006840F00200086000BF454808309C
:10108000006800F00C000828F8D10CBD10B54548E8
:10109000006840F47000434908603E48006840F032
:1010A00001003C49086000203A490831086039488D
:1010B00000683D490840374908603C48091D086000
:1010C000081F006820F48020091F086000203149B3
:1010D0000C310860FFF76CFF4FF000603149803938
:1010E000086010BD70B500200022022300240221F8
:1010F000284D08352D6805F00C0020B1042806D0D5
:10110000082834D107E02A4D2A4E356033E02A4DB5
:10111000284E35602FE01F4D2D1D2D68C5F38054DE
:101120001C4D2D1D2D6805F03F0154B1224DB5FB1E
:10113000F1F5184E361D3668C6F3881605FB06F223
:1011400009E01B4DB5FBF1F5124E361D3668C6F3AE
:10115000881605FB06F20F4D2D1D2D68C5F30145C0
:101160006D1C6B00B2FBF3F5124E356003E0104DC1
:10117000104E356000BF00BF064D08352D68C5F321
:1011800003150E4E705D0B4D2D68C540094E356040
:1011900070BD000000380240007000400854400755
:1011A000003C024088ED00E0FFFFF6FE1030002416
:1011B0000024F4001C00002000127A00200000200F
:1011C0007FB504460D460121022005F0FCFFADF875
:1011D00004500020ADF806000294ADF80C0001A9FF
:1011E000124806F0F2F901221146104806F08EFE70
:1011F00001210E4806F072FA1D208DF80000012032
:101200008DF8010003208DF8020001208DF8030005
:10121000684605F000FC7FBD10B50121034806F0CB
:101220008CFE0121014806F099FE10BD000400402B
:1012300010B5B0B001214FF0606005F07BFF07F002
:10124000A1F907F01CFF00BF07F020FF0128FBD029
:1012500001A807F0A2F901200190002008904FF4A6
:1012600000700B9000200C900F901290149015902D
:10127000169021904FF000702290001124900020D1
:101280002690279004202990C0052A9040122B9088
:1012900080012C9040122D9040002F90002101A839
:1012A00007F035FAC4B2012C03D10121B64807F08A
:1012B00004FF204630B010BD08B53D208DF8000079
:1012C00000208DF801008DF8020001208DF8030048
:1012D000684605F0A0FB08BD1CB5002401214D2087
:1012E00005F028FF0121880305F07EFF012006F0AC
:1012F000A7F88620009003208DF8050002208DF8C5
:10130000040000208DF806008DF8070069469F480C
:1013100005F072FC0B2201219C4805F0F8FC0B2221
:1013200002219A4805F0F3FC0B220721974805F0AB
:10133000EEFC322000906946954805F05DFC0B22DA
:101340000121934805F0E3FC0B220421904805F0AD
:10135000DEFC0B2205218E4805F0D9FC4FF4D0406D
:10136000009069468B4805F047FC0B2211468948DE
:1013700005F0CDFC0B220D21864805F0C8FC0B22A0
:101380000E21844805F0C3FC0820009003208DF84E
:10139000050001208DF8040000208DF806008DF86E
:1013A000070069467C4805F027FC00207B4908605F
:1013B000322009F04BF801207949C1F88C02FFF77F
:1013C0007BFFFFF735FF04460CB901201CBD002050
:1013D000FCE710B51F21002007F068F9C0F3820474
:1013E000204610BD10B501E00CF0CAFC6D48006845
:1013F00007F021FE0028F7D1402007F075FE4FF4DA
:10140000803007F071FE10BD1EB500210022009251
:1014100001920292634A1268126802F0004282B19D
:1014200000220092604A526902F0800222B18022BA
:101430005D4B5A6100229A609DE81C0080E81C0008
:101440001EBD584A1268126802F40042B2B9554AE9
:101450001268126802F4807282B1524A12681268ED
:1014600002F4007252B14F4A12681268C2F30D4280
:10147000111F4C4A12689268019200E0002100910D
:10148000484A12680292474A1268D268454B1A606D
:101490009DE81C0080E81C0000BFD1E701464348DE
:1014A0000068006800F0004008B100207047C1F3F8
:1014B0000C003E4A126850603C480068006840F0EA
:1014C00040503A4A1268106038480068006840F09E
:1014D0000040364A126810603348406900F004004A
:1014E00020B10420304A5061002050602F4800682D
:1014F000C0682E4A10600120D8E72C480068806838
:10150000704710B52A480168002009F09AF8294868
:101510000168002009F095F827480168002009F0CB
:1015200090F826480168002009F08BF810BD10B52E
:10153000A021002009F095F81D490860A021002095
:1015400009F08FF81B49086041F6C451002009F0EA
:1015500088F81949086041F6C451002009F081F863
:10156000164908601248006840B11248006828B166
:101570001148006810B10846006818B9FFF7C1FFAC
:10158000012010BD0020FCE74000010000000240E7
:101590000008024000180240000C02408C824142C8
:1015A00000804142A0010020009002409C010020E8
:1015B0003000002034000020380000203C000020D3
:1015C000FC48FD490860FD48FD49086070472DE969
:1015D000F0418AB004460D4616461F46DDF84080AD
:1015E0000121084605F0A6FD0121480605F0EBFDA6
:1015F0004FF4C050089002208DF8240000208DF890
:10160000260003208DF8250001208DF8270008A969
:10161000EC4805F0F1FA09220B21EA4805F077FBC6
:1016200009220C21E74805F072FB00208DF81A0012
:1016300001208DF81B0000208DF81C0001208DF882
:101640001D0000208DF81E008DF81F008DF81680FB
:101650008DF817408DF818608DF81950ADF814709A
:1016600005A9D94808F08DF800208DF80E008DF8F6
:101670000F0001208DF810000020ADF80400ADF837
:101680000600ADF80800ADF80A00ADF80C00012026
:101690008DF8110001A808F0FEF801220221CA48C5
:1016A00008F0F8FB14208DF8000001208DF80100EF
:1016B00000208DF8020001208DF80300684605F037
:1016C000AAF900200AB0BDE8F0812DE9F04186B00A
:1016D00007460D4690460024CDF8088004208DF87A
:1016E0000C0000208DF80D008DF80E5000BF05E0B5
:1016F000395D0DF10F000155601C84B2AC42F7DB7F
:1017000001A9B14808F0B6F90646002401E0601CC2
:1017100084B23146AC4808F045FA18B940F6FF707B
:101720008442F4DB40F6FF70844203DB012006B004
:10173000BDE8F0810020FAE7024641EA0220704746
:1017400070B50246002041F22104002513E012F892
:10175000015B80EA052000230BE000F400461EB187
:1017600084EA4006B0B203E04FF6FF7606EA400096
:101770005B1C082BF1DB0B1EA1F10106B1B2E6D117
:1017800070BD10B504462078E0287DD1607801282E
:10179000FBD1A0780128F8D1E07828281AD006DCFF
:1017A00020280BD024280AD026286ED10BE0292827
:1017B00017D0322819D03328F7D169E095E00320FB
:1017C0008249087091E001208149087202207F4916
:1017D00008708AE0A17C607CFFF7AEFF7D49088439
:1017E00083E00320794908707FE028212046FFF735
:1017F000A7FF79490880E17AA07AFFF79DFF774932
:101800000870617B207BFFF797FF7249888008464C
:1018100080880880E17BA07BFFF78EFF6D49C88040
:101820000846C0884880617C207CFFF785FF6949B5
:101830000881E17CA07CFFF77FFF66494881617DDC
:10184000207DFFF779FF63498881084680894883B6
:10185000E17DA07DFFF770FF5E49C881617E207E3B
:10186000FFF76AFF5B490882207F28388874607F11
:101870002838C874A07F28380875E07F2838487554
:1018800094F82000283801E030E02DE088752CE045
:1018900021212046FFF754FF034694F8221094F8C4
:1018A0002100FFF749FF83421DD1A17B607BFFF739
:1018B00043FF48494884217CE07BFFF73DFF4549D1
:1018C0008884A17C607CFFF737FF4249C884E17DB2
:1018D000A07DFFF731FF3F490885617E207EFFF73D
:1018E0002BFF3C49488500E000BF00BF10BD0FB48E
:1018F00010B53B480078012858D1002038490870BD
:101900009DF8130060B93749059A0A60BDF81820A0
:101910008A809DF81A0088710120334908701BE005
:1019200031480078012817DB2F480078802813DA27
:101930002D480078401C2C49087008460078401E4D
:10194000C0EBC00027490144059A0A60BDF8182081
:101950008A809DF81A0088719DF81300802825DB85
:1019600021480078012821DB1F48007808281DDA6B
:101970001D480078401C1C49087008460078401E2D
:10198000C0EBC00017490144059A0A60BDF8182051
:101990008A809DF81A0088711248FFF7F2FE002035
:1019A0001149087032210F4822F012FB10BC5DF87B
:1019B00014FB00008100BE1F40000020F87E2010B4
:1019C0004400002000000240006400404900002064
:1019D000A027002074270020580000204A00002083
:1019E00048000020AA2700205A00002000B587B038
:1019F0001CF012F802AA0021FE4808F030F9FE4956
:101A00000398084448B90698009002A80FC8FFF749
:101A10006EFF0120F949087000E000BF00BF1CF014
:101A20000CF807B000BD2DE9F0418AB004460D4620
:101A300016461F46DDF840800121022005F07AFBA2
:101A40000121880605F0BFFB6020089002208DF878
:101A5000240000208DF8260003208DF825000120A9
:101A60008DF8270008A9E64805F0C6F809220521E7
:101A7000E34805F04CF909220621E14805F047F951
:101A800000208DF81A0001208DF81B0000208DF831
:101A90001C0001208DF81D0000208DF81E008DF81F
:101AA0001F008DF816808DF817408DF818608DF89E
:101AB0001950ADF8147005A9D24807F062FE0F2046
:101AC0008DF80E0000208DF80F0001208DF8100019
:101AD0000020ADF80400ADF80600ADF80800ADF840
:101AE0000A00ADF80C0001208DF8110001A807F0E4
:101AF000D2FE01220221C34808F0CCF940208DF823
:101B0000000002208DF8010001208DF802008DF800
:101B10000300684604F07FFF00200AB0BDE8F081B2
:101B20002DE9F04186B007460D4690460024CDF8D9
:101B3000088004208DF80C0000208DF80D008DF831
:101B40000E5000BF05E0395D0DF10F000155601C1E
:101B500084B2AC42F7DB01A9AA4807F08BFF064626
:101B6000002401E0601C84B23146A64808F01AF84F
:101B700018B940F6FF708442F4DB40F6FF708442EF
:101B800003DB012006B0BDE8F0810020FAE700B5D4
:101B900087B01BF041FF02AA00219A4808F05FF8C5
:101BA00095490398084448B90698009002A80FC8C0
:101BB000FFF79DFE01209149087000E000BF00BFC3
:101BC0001BF03BFF07B000BD30B585B005460021D6
:101BD0008C4808F0C7F810B9002005B030BD6A463F
:101BE0000021884808F03BF8002404E00DF10B00C8
:101BF000005D2855641C9DF80A00A042F6D89DF8A7
:101C00000A00EAE730B5024600210020282A14D055
:101C100006DC202A0BD0242A0BD0262A15D10AE074
:101C2000292A0CD0322A0CD0332A0ED10BE0002105
:101C30000CE006210AE0152108E0002106E006215B
:101C400004E0002102E00E2100E000BF00BF01F12E
:101C50000E03072493FBF4F504FB153333B101F1B4
:101C60000E0393FBF4F35B1CD8B205E001F10E0305
:101C7000072493FBF4F3D8B230BD2DE9F0438DB0C7
:101C80008046894616461D460027002434216846B2
:101C900022F0C0F932215C4822F0BCF9002000EBB0
:101CA000C401594A5054E020012101EBC4015054B1
:101CB0007D20022101EBC40150547820032101EB67
:101CC000C4015054042000EBC400114601F8008008
:101CD000B8F1290F03D0B8F1330F23D111E024203C
:101CE000052101EBC401484A5054062000EBC40012
:101CF000114601F800908020072101EBC4015054E7
:101D000020E00020052101EBC4013F4A505401208E
:101D1000062101EBC40150540020072101EBC4014E
:101D200050540FE00020052101EBC401364A505405
:101D3000062101EBC40150548020072101EBC401AE
:101D4000505400BF00BF4046FFF75CFF0446022C22
:101D500006D0032C66D0042C7ED0052C7DD1A6E1C4
:101D600004F17F00C1B2601E002202EBC000264ACF
:101D700011540121601E01EBC00011540021601EAE
:101D8000022202EBC000204A1154601E032202EB23
:101D9000C0001D4A11543112601E042202EBC00023
:101DA000194A1154601E052202EBC000164A16544F
:101DB000A01E012101EBC0001146084401680091FA
:101DC0008188ADF8041080798DF80600601E01212D
:101DD00001EBC000114608440168CDF807100079F6
:101DE0008DF80B000C216846FFF7AAFC0746390A5C
:101DF000601E0BE0006400400881DFEF4800002017
:101E00000004024000680040DC270020062202EBAC
:101E1000C000FE4A1154601E072202EBC000FB4ABC
:101E20001754FBE10121A01E002202EBC000F74A7B
:101E30001154A01E01EBC00011540021A01E02226B
:101E400002EBC000F14A1154A01E032202EBC000B5
:101E5000EE4A1154311201E07FE0DEE1A01E0422BF
:101E600002EBC000E94A1154A01E052202EBC0009B
:101E7000E64A16542978A01E062202EBC000E34A67
:101E800011546978A01E072202EBC000DF4A1154EA
:101E900004F17F00C1B2601E002202EBC000DB4AE9
:101EA0001154A978601E012202EBC000D74A1154D8
:101EB000E978601E022202EBC000D44A115429794D
:101EC000601E032202EBC000D04A11546979601EE3
:101ED000042202EBC000CD4A1154E01E012101EBA7
:101EE000C00011460844016800918188ADF80410D3
:101EF00080798DF80600A01E012101EBC00011467B
:101F000008440168CDF807108188ADF80B1080797E
:101F10008DF80D00601E012101EBC0001146084440
:101F20000068CDF80E0012216846FFF709FC07464D
:101F3000390A601E052202EBC000B44A1154601E2B
:101F4000062202EBC000B14A17540021601E07228E
:101F500002EBC000AD4A115460E1E01EC1B20022A4
:101F600002EBC000A94A11540121E01E01EBC000A0
:101F700011540021E01E022202EBC000A34A1154BA
:101F8000E01E032202EBC000A04A1154E01E04220E
:101F900002EBC0009D4A1154E01E052101EBC00078
:101FA00011460E542978E01E062202EBC000974A23
:101FB00011546978E01E072202EBC000934A1154C5
:101FC000A01EC1B2002202EBC000904A1154A978B1
:101FD000A01E012202EBC0008C4A1154E978A01E19
:101FE000022202EBC000894A11542979A01E032263
:101FF00002EBC000854A11546979A01E042202EB4D
:10200000C000824A115404F17F00C1B2601E002258
:1020100002EBC0007D4A1154201F012101EBC000DA
:1020200011460844016800918188ADF80410807958
:102030008DF80600E01E012101EBC00011460844A6
:102040000168CDF807108188ADF80B1080798DF804
:102050000D00A01E012101EBC000114608440168DB
:10206000CDF80E108188ADF8121080798DF814002B
:10207000601E012101EBC000114608440168CDF843
:10208000151000798DF819001A216846FFF758FBE2
:102090000746390A601E062202EBC0005B4A115453
:1020A000601E072202EBC000584A1754B6E0201FFA
:1020B000C1B2002202EBC000544A11540121201F7A
:1020C00001EBC00011540021201F022202EBC000CE
:1020D0004E4A1154201F032202EBC0004B4A1154F8
:1020E0003112201F042202EBC000484A1154201F65
:1020F000052202EBC000454A16542978201F06220B
:1021000002EBC000414A11546978201F072202EBFC
:10211000C0003E4A1154E01EC1B2002202EBC000D2
:102120003A4A1154A978E01E012202EBC000374A56
:102130001154E978E01E022202EBC000334A115428
:10214000A01EC1B2002202EBC000304A115404F1BB
:102150007F00C1B2601E002202EBC0002B4A115466
:10216000601F012101EBC000114608440168009185
:102170008188ADF8041080798DF80600201F0121B8
:1021800001EBC000114608440168CDF807108188B2
:10219000ADF80B1080798DF80D00E01E012101EBE8
:1021A000C000114608440168CDF80E108188ADF8D2
:1021B000121080798DF81400A01E012101EBC000DF
:1021C000114608440168CDF815108188ADF8191042
:1021D00080798DF81B00601E012101EBC0001146C3
:1021E00008440168079100798DF820002121684694
:1021F000FFF7A6FA0746390A601E062202EBC00066
:10220000024A1154601E072202E00000DC27002071
:1022100002EBC000774A175400E000BF00BF204621
:102220000DB0BDE8F0832DE9F04105460E46174696
:1022300000240AE006EBC4002A460821FFF745FA0D
:10224000142008F003F9601CC4B2082000FB1470CD
:102250000028EFDC0020BDE8F0812DE9F0418AB0D4
:1022600004460D4616461F46DDF840800121022037
:1022700004F060FF0121880604F0A5FF60200890AB
:1022800002208DF8240000208DF8260003208DF810
:10229000250001208DF8270008A9574804F0ACFC60
:1022A00009220521544804F032FD09220621524832
:1022B00004F02DFD00208DF81A0001208DF81B0080
:1022C00000208DF81C0001208DF81D0000208DF8E5
:1022D0001E008DF81F008DF816808DF817408DF8C0
:1022E00018608DF81950ADF8147005A9434807F02F
:1022F00048FA0F208DF80E0000208DF80F00012005
:102300008DF810000020ADF80400ADF80600ADF81F
:102310000800ADF80A00ADF80C0001208DF811009E
:1023200001A807F0B8FA01220221344807F0B2FDF3
:1023300040208DF8000002208DF8010001208DF86A
:1023400002008DF80300684604F065FB00200AB027
:10235000BDE8F0812DE9F04186B007460D46904674
:102360000024002001903A20029000208DF80C00FB
:102370008DF80D008DF80E5000BF05E0395D0DF1B0
:102380000F000155601C84B2AC42F7DB01A91B4869
:1023900007F070FB0646002401E0601C84B2314661
:1023A000164807F0FFFB18B940F6FF708442F4DBD3
:1023B00040F6FF70844203DB012006B0BDE8F081E7
:1023C0000020FAE710B501200D490870022048707E
:1023D000032088700420C870052008710620487109
:1023E000072088710820C871002208210448FFF7DF
:1023F000B1FF10BDDC27002000040240006800404F
:102400005B00002010B500F0E3FA10BD70B5044683
:10241000002600F0FCFA2546E11704EB11610912D1
:10242000A02202EB4101C8B200F09DFB00F030FB9E
:10243000E11704EB11610912A4EB0121C8B200F00D
:1024400092FB00F025FB00F0E2FAA12000F08BFBEC
:1024500000F01EFB002000F0B3FB064600F0F9FA86
:10246000304670BD70B504460E4600F0D0FA2546E1
:10247000E11704EB11610912A02202EB4101C8B27D
:1024800000F071FB00F004FBE11704EB116109128D
:10249000A4EB0121C8B200F066FB00F0F9FA304667
:1024A00000F061FB00F0F4FA00F0D3FA0A2007F024
:1024B000CDFF70BD2DE9F04105460E4617460024BC
:1024C00009E0E20026FA02F2D1B22A1990B2FFF72F
:1024D000C9FF601CC4B2BC42F3DBBDE8F0812DE94A
:1024E000F04107460C460026002509E0360239195E
:1024F000491B491E88B2FFF789FF0644681CC5B214
:10250000A542F3DB3046BDE8F08110B5FF20FFF7B0
:102510007DFF0446552C01D1002010BD5521FF2020
:10252000FFF7A0FFFF20FFF771FF0446552C01D1F4
:102530000020F2E70120F0E770B506460C4615468C
:1025400008E03046721C96B2FFF760FF04F8010BFA
:10255000681E85B2002DF4D170BD70B505460C46DD
:10256000164606E021782846FFF77CFF681C85B2F6
:10257000641C301EA6F101018EB2F3D170BD2DE9AD
:10258000F04707460D4614464FF00009C846C246BC
:1025900000262846E91705EB11710911A5EB011179
:1025A00001F0FF0ACAF11000C6B22046E11704EBA1
:1025B0001171C1F30719E11704EB11710911A4EBB3
:1025C000011101F0FF08BAF1000F19D108E0102243
:1025D00039462846FFF7C1FF05F1100085B21037D4
:1025E000B9F10000A9F1010101F0FF09EFD1B8F143
:1025F000000F3FD0424639462846FFF7AEFF39E08C
:10260000B44205DA224639462846FFF7A6FF31E0F4
:10261000A01B84B22046E11704EB1171C1F3071926
:10262000E11704EB11710911A4EB011101F0FF088E
:102630003EB1324639462846FFF78FFFA81985B2CA
:10264000374408E0102239462846FFF786FF05F197
:10265000100085B21037B9F10000A9F1010101F0B5
:10266000FF09EFD1B8F1000F04D0424639462846A1
:10267000FFF773FFBDE8F08770B504460D462646A8
:1026800000F0C5F9A02000F06EFA00F001FA00B1E8
:1026900018E0301200F067FA00F0FAF900B111E02A
:1026A000F0B200F060FA00F0F3F900B10AE0284659
:1026B00000F059FA00F0ECF900B103E000F0C9F9BC
:1026C000012070BD00F0C5F90020FAE72DE9F047C0
:1026D00080460E4691464FF6FF7000EA86150024AC
:1026E00032E014B105F03F0010BB00270AE000F013
:1026F0008EF9A02000F037FA00F0CAF900B904E022
:10270000781C87B2B7F57A7FF1DB00BFB7F57A7F27
:1027100000D120E0281200F026FA00F0B9F900B14B
:1027200019E0E8B200F01FFA00F0B2F900B112E0CF
:1027300018F8040000F017FA00F0AAF900B10AE056
:10274000681C85B2601C84B24C45CADB00F081F97C
:102750000120BDE8F08700F07CF90020F9E770B5B2
:102760000446254600F053F9A02000F0FCF900F0E3
:102770008FF908B100F06DF9281200F0F4F900F0BB
:1027800087F908B100F065F9E8B200F0ECF900F063
:102790007FF908B100F05DF900F039F9A12000F0EF
:1027A000E2F900F075F908B100F053F9002000F0EB
:1027B00007FA064600F0B6F900F04BF9304670BD56
:1027C0002DE9F04107460D4616464FF6FF7000EA28
:1027D000851800F01CF9B02000F0C5F900F058F998
:1027E00000B12FE04FEA282000F0BDF900F050F9C9
:1027F00000B127E008F0FF0000F0B5F900F048F95B
:1028000000B11FE000F003F9B12000F0ACF900F0D6
:102810003FF900B116E000240DE0002000F0D0F9EF
:102820003855701EA04202D000F05BF901E000F0C4
:1028300079F9601C84B2B442EFDB00F00AF90120A0
:10284000BDE8F08100F005F90020F9E770B5054614
:102850000C46164606E021782846FFF70DFF681C57
:1028600085B2641C301EA6F101018EB2F3D170BD99
:1028700070B506460C46154608E03046721C96B206
:10288000FFF76DFF04F8010B681E85B2002DF4D12F
:1028900070BD70B504460D461646324621462846A0
:1028A000FFF7E6FF70BD10B5C0B0002404E020A91A
:1028B0000C552046601C84B2802CF8DB802200215D
:1028C00020A8FFF75CFE802269460020FFF734FE57
:1028D00000240BE01DF8040020A9095D884202D005
:1028E000012040B010BD2046601C84B2802CF1DB7A
:1028F0000020F6E732480078052831D2DFE800F002
:10290000030C151E27004FF480502E494883C01039
:1029100008830001488324E04FF48050294908834C
:10292000C0104883000148831BE04FF480502549C4
:102930004883C01048830001088312E04FF48050A0
:1029400020494883C01048830001088309E04FF400
:1029500080501C494883C01008830001488300E070
:1029600000BF00BF70471848007809280ED2DFE882
:1029700000F00D05060708090A0B0C0007E006E049
:1029800005E004E003E002E001E000E000BF00BF7A
:1029900070470E48007809280ED2DFE800F00D05D8
:1029A000060708090A0B0C0007E006E005E004E052
:1029B00003E002E001E000E000BF00BF704700005C
:1029C0006500002000100240630000206400002029
:1029D0001CB50121022004F0ADFB4FF440700090C3
:1029E00001208DF8040000208DF8060003208DF8EA
:1029F000050001208DF807006946894804F0FCF8BD
:102A00000120884908608849C1F8A4021CBD10B59E
:102A10008348006820F44020814908600846006827
:102A200040F48020086001207E49091D08607E492D
:102A3000C1F8A002042007F0DEFC00207949091D3E
:102A40000860042007F0D7FC00207749C1F8A002F5
:102A500010BD10B57248006820F44020704908602D
:102A60000846006840F48020086000206D49086036
:102A70006D49C1F8A402042007F0BDFC012069499A
:102A800008606949C1F8A402042007F0B4FC10BD35
:102A900010B500246248006820F4402060490860B6
:102AA00008460068086001205E49091D086007F0BB
:102AB000A2FC01205C49C1F8A00207F09CFC07E0E1
:102AC000601CC4B2FA2C03DDFFF7C3FF012010BD68
:102AD00054487C3800680028F2D15249086000BF91
:102AE000F5E710B500204F4908604D48006820F414
:102AF00040204B4908600846006840F48020086088
:102B000000204949C1F8A402022007F074FC01200A
:102B100044490860022007F06EFC00204249C1F8D9
:102B2000A00210BD10B500203E4908603C48006876
:102B300020F440203A4908600846006840F48020AC
:102B4000086001203849C1F8A402022007F053FCB4
:102B5000012034490860022007F04DFC0020324972
:102B6000C1F8A00210BD70B504462D48006820F4DD
:102B700040202B4908600846006840F48020086027
:102B8000002028490860002517E0E0092549091DB3
:102B900008606006040E022007F02DFC0120224987
:102BA000C1F8A002022007F026FC00201D490860A1
:102BB000022007F020FC681CC5B2082DE5DB70BDC3
:102BC00070B5054600241648006820F440201449DA
:102BD0000860084600680860002616E000201149D9
:102BE0000860022007F007FC01200F49C1F8A0028D
:102BF0006006040E0B487C38006808B1601CC4B243
:102C0000012007F0F8FB701CC6B2082EE6DB15B9F0
:102C1000FFF788FF01E0FFF764FF204670BD00006A
:102C200000040240A0824042008040421CB50121C5
:102C30005F2004F07FFA01208DF8040000208DF859
:102C4000060003208DF8050001208DF807004FF4E1
:102C5000785000906946FE4803F0CEFF4FF4804064
:102C600000906946FA4803F0C7FF00208DF8040081
:102C700003208DF8050001208DF807004FF4014076
:102C800000906946F34803F0B7FF4FF612700090CA
:102C90006946F14803F0B0FF40F2FC6000906946DD
:102CA000EE4803F0A9FF4FF4204000906946EC483D
:102CB00003F0A2FF4FF48050E5490883C010088359
:102CC0000001088380100883401008834FF47A7055
:102CD00007F0BCFB4FF48050DD494883C0104883A7
:102CE0000001488380104883401048831CBD10B504
:102CF00000244FF40041DA4803F0E0FF78B90A20DD
:102D000007F0A4FB4FF40041D54803F0D7FFF0B91A
:102D1000D448407820F02000D249487017E04FF4A2
:102D20000041CF4803F0CAFF012810D10A2007F064
:102D30008DFB4FF40041CA4803F0C0FF012806D1C3
:102D4000C848407820F020002030C64948704FF431
:102D50000051C34803F0B2FF012811D10A2007F047
:102D600075FB4FF40051BE4803F0A8FF01281CD1A9
:102D7000BC48407820F040004030BA49487014E028
:102D80004FF40051B64803F099FF70B90A2007F0DC
:102D90005DFB4FF40051B24803F090FF28B9B148F1
:102DA000407820F04000AF4948700421AB4803F060
:102DB00085FF012819D1642007F048FB0421A748AA
:102DC00003F07CFF01281BD1642007F03FFB0421A6
:102DD000A24803F073FF012812D1A248007820F026
:102DE0000100401C9F4908700AE004219B4803F041
:102DF00065FF28B99B48007820F0010099490870C8
:102E00004FF40041944803F059FF01281BD164207E
:102E100007F01CFB4FF400418F4803F04FFF0128DF
:102E20001DD1642007F012FB4FF400418A4803F0E3
:102E300045FF012813D18B48007820F00200801C48
:102E4000884908700BE04FF40041834803F036FFD7
:102E500028B98448007820F00200824908704FF4B5
:102E600080517D4803F02AFFC0B9642007F0EEFAD4
:102E70004FF48051784803F021FFE8B9642007F04F
:102E8000E5FA4FF48051744803F018FFA0B9754873
:102E9000007820F00400734908700DE04FF4805171
:102EA0006D4803F00BFF012806D16E48007820F032
:102EB0000400001D6B4908704FF40061664803F080
:102EC000FDFEC0B9642007F0C1FA4FF4006162480A
:102ED00003F0F4FEE8B9642007F0B8FA4FF400619B
:102EE0005D4803F0EBFEA0B95E48007820F00800D2
:102EF0005C4908700DE04FF40061574803F0DEFEB6
:102F0000012806D15748007820F0080008305549BC
:102F100008701021504803F0D1FEB0B9642007F0CA
:102F200095FA10214C4803F0C9FED8B9642007F087
:102F30008DFA1021484803F0C1FE98B9494800783D
:102F400020F01000474908700CE01021424803F0BF
:102F5000B5FE012806D14348007820F0100010305B
:102F60004049087002213C4803F0A8FEB0B9642033
:102F700007F06CFA0221384803F0A0FED8B96420AB
:102F800007F064FA0221344803F098FE98B93548F6
:102F9000007820F02000334908700CE002212E4810
:102FA00003F08CFE012806D12E48007820F0200086
:102FB00020302C4908704FF40071274803F07EFE42
:102FC000C0B9642007F042FA4FF40071224803F0C0
:102FD00075FEE8B9642007F039FA4FF400711E4815
:102FE00003F06CFEA0B91F48007820F040001D4996
:102FF00008700DE04FF40071174803F05FFE0128E0
:1030000006D11848007820F040004030154908707B
:103010004FF48071104803F051FEC0B9642007F0EE
:1030200015FA4FF480710C4803F048FE50BB642041
:1030300007F00CFA4FF48071074803F03FFE08BB1D
:103040000848007820F08000064908701AE00BE07C
:103050000010024000000240000C02400018024034
:1030600000040240680000204FF48071FE4803F025
:1030700025FE012806D1FD48007820F08000803030
:10308000FA4908704FF48041F74803F017FE78B909
:10309000642007F0DBF94FF48041F34803F00EFEA3
:1030A000F0B9F248407820F00100F049487017E08C
:1030B0004FF48041EC4803F001FE012810D1642058
:1030C00007F0C4F94FF48041E74803F0F7FD012809
:1030D00006D1E648407820F00100401CE3494870E2
:1030E0004FF40051E04803F0E9FD78B9642007F09F
:1030F000ADF94FF40051DC4803F0E0FDF0B9DB48D6
:10310000407820F00200D949487017E04FF4005190
:10311000D54803F0D3FD012810D1642007F096F9BB
:103120004FF40051D04803F0C9FD012806D1CF4823
:10313000407820F00200801CCC4948704FF40071A8
:10314000CB4803F0BBFD78B9642007F07FF94FF45A
:103150000071C74803F0B2FDF0B9C448407820F0D0
:103160000400C249487017E04FF40071C04803F0F2
:10317000A5FD012810D1642007F068F94FF4007113
:10318000BB4803F09BFD012806D1B848407820F0E9
:103190000400001DB54948701021B54803F08EFDAC
:1031A00070B9642007F052F91021B14803F086FD90
:1031B000E0B9AE48407820F00800AC49487015E00E
:1031C0001021AB4803F07AFD01280FD1642007F0ED
:1031D0003DF91021A64803F071FD012806D1A3484E
:1031E000407820F008000830A04948704FF4806112
:1031F0009F4803F063FD78B9642007F027F94FF486
:1032000080619B4803F05AFDF0B99848807820F01F
:1032100001009649887017E04FF48061944803F0EC
:103220004DFD012810D1642007F010F94FF48061A2
:103230008F4803F043FD012806D18C48807820F0A8
:103240000100401C894988700821894803F036FD37
:1032500070B9642007F0FAF80821854803F02EFDC4
:10326000E0B98248807820F002008049887015E03B
:1032700008217F4803F022FD01280FD1642007F0C8
:10328000E5F808217A4803F019FD012806D17748AE
:10329000807820F00200801C744988704FF48061AF
:1032A000714803F00BFD78B9642007F0CFF84FF4B4
:1032B00080616D4803F002FDF0B96C48807820F021
:1032C00004006A49887017E04FF48061664803F093
:1032D000F5FC012810D1642007F0B8F84FF48061A4
:1032E000614803F0EBFC012806D16048807820F0AB
:1032F0000400001D5D4988704FF400415D4803F0F3
:10330000DDFC78B9642007F0A1F84FF4004159487A
:1033100003F0D4FCF0B95548807820F008005349F8
:10332000887017E04FF40041524803F0C7FC0128B1
:1033300010D1642007F08AF84FF400414D4803F0A3
:10334000BDFC012806D14948807820F008000830EB
:10335000464988704021464803F0B0FC70B96420AB
:1033600007F074F84021424803F0A8FCE0B93F4858
:10337000807820F010003D49887015E040213C48DD
:1033800003F09CFC01280FD1642007F05FF8402176
:10339000374803F093FC012806D13448807820F0A8
:1033A00010001030314988702021314803F086FC2C
:1033B00070B9642007F04AF820212D4803F07EFC04
:1033C000E0B92A48807820F020002849887015E06C
:1033D0002021274803F072FC01280FD1642007F058
:1033E00035F82021224803F069FC012806D11F4846
:1033F000807820F0200020301C4988704FF48071C4
:103400001C4803F05BFC78B9642007F01FF84FF408
:103410008071184803F052FCF0B91448807820F00D
:1034200040001249887017E04FF48071114803F092
:1034300045FC012810D1642007F008F84FF4807192
:103440000C4803F03BFC012806D10848807820F0A6
:1034500040004030054988708021054803F02EFC6B
:10346000C0B9642008E00000000C024068000020A1
:10347000001802400000024006F0E8FF80216D487D
:1034800003F01CFCE0B96C48807820F080006A49A9
:10349000887015E08021674803F010FC01280FD1E7
:1034A000642006F0D3FF8021624803F007FC012866
:1034B00006D16148807820F0800080305E498870B5
:1034C0005D480478FC2C3DD00078C0F3001010B9A2
:1034D00005205A49087058480078C0F3401010B9C8
:1034E00006205649087054480078C0F3801010B97F
:1034F00007205249087050480078C00910B90820C8
:103500004E4908704C48007800F0010010B10120CD
:103510004A49087048480078C0F3400010B10220C2
:103520004649087044480078C0F3800010B9032071
:103530004249087040480078C0F3C00010B9042028
:103540003E490870FC2C03D100203C4908700AE079
:103550003A480078032803D101203949087002E075
:1035600002203749087034480088C0F307242F2C04
:103570002BD031488078C0F3400028B9022031496F
:10358000087003202E4908702B488078C0F3401043
:1035900028B906202B4908700320294908702648BD
:1035A0008078C0F3001028B9052026490870032050
:1035B0002349087020484078C0F3C00028B909208A
:1035C0002049087004201E4908701B484078C0F349
:1035D000401088B91C48007818B11B4800780328AF
:1035E00003D102201849087006E017480078022825
:1035F00002D10120144908700F484078C0F38010B0
:1036000060B911480078012803D00F4800780228DB
:1036100003D103200C49087000E000BF0648407841
:10362000C0F3C00028B909200649087004200449E5
:10363000087010BD001802406800002063000020E0
:1036400065000020640000206600002000BF704775
:1036500000BFFE4A128802F04002002AF9D0C2B22E
:10366000FA4B9A80704710B588B00446012108468D
:1036700003F060FD0121102003F0B6FD07220921AF
:10368000F34803F044FB07220A21F14803F03FFB13
:103690004FF4C060069002208DF81C008DF81D00CC
:1036A00000208DF81E0001208DF81F0006A9E848B3
:1036B00003F0A2FA02940020ADF80C00ADF80E0061
:1036C000ADF81000ADF814000C20ADF8120002A9FE
:1036D000DE4804F086FD0121DC4804F00AFE0122E8
:1036E00040F22551D94804F0BAFE25208DF8040097
:1036F00003208DF805008DF8060001208DF80700E5
:1037000001A803F088F908B010BD10B596B00446C2
:103710000121082003F00EFD0121480403F053FDB0
:103720000121480503F006FD07220521C94803F0E1
:10373000EEFA07220621C74803F0E9FAE0201490C8
:1037400002208DF854008DF8550000208DF85600A9
:1037500001208DF8570014A9BE4803F04DFA8020CF
:10376000149001208DF8540000208DF8560003209D
:103770008DF8550001208DF8570014A9B54803F0C5
:103780003BFA10940020ADF84400ADF84600ADF8C7
:103790004800ADF84C000C20ADF84A0010A9AE4826
:1037A00004F01FFD0121AC4804F0A3FD012240F20A
:1037B0002441A94804F053FE26208DF83C00032044
:1037C0008DF83D008DF83E0001208DF83F000FA8D8
:1037D00003F021F9012280219F4804F037FE0122E5
:1037E00040219D4804F032FE9C4805F0DDFD00BFFD
:1037F0009A4805F002FF0028FAD14FF000600090CF
:103800009548001D0190964802904020039080004A
:103810000490002005904FF48060069000200790EF
:10382000089009904FF480300A9000200B900320FC
:103830000C9000200D900E906946884805F056FEC9
:103840008648183805F0B0FD00BF8448183805F0E8
:10385000D4FE0028F9D14FF0006000907E48001D92
:10386000019080480290002003904FF480700490F3
:10387000002005904FF4806006900020079008908B
:1038800009904FF480300A9000200B9003200C9098
:1038900000200D900E9069467048183805F026FEFD
:1038A00001216E48183805F05BFE80206949183107
:1038B000088016B010BD1CB51AF0AEF840F22441D5
:1038C000654804F007FE98B300216448183805F0F5
:1038D00047FE61480488001D04886048183805F0D8
:1038E00062FEC0F5807084B284B122465D495E48B4
:1038F00020F029FB082C01D00F2C07D101A80023B0
:1039000022465949009059481EF008F95849534831
:10391000183805F09EFE4FF480715048183805F0B5
:1039200040FE01214D48183805F01AFE1AF085F8BE
:103930001CBD10B596B004460121022003F0FAFB2D
:103940000121880403F03FFC0121480503F0F2FB4C
:1039500007220A21474803F0DAF907220B214548DC
:1039600003F0D5F94FF44060149002208DF8540014
:103970008DF8550000208DF8560001208DF8570075
:1039800014A93C4803F038F94FF4805014900120FA
:103990008DF8540000208DF8560003208DF8550056
:1039A00001208DF8570014A9324803F025F910942E
:1039B0000020ADF84400ADF84600ADF84800ADF881
:1039C0004C000C20ADF84A0010A92B4804F009FC6B
:1039D0000121294804F08DFC012240F224412648AF
:1039E00004F03DFD27208DF83C0003208DF83D00BC
:1039F0008DF83E0001208DF83F000FA803F00BF872
:103A0000012280211C4804F021FD012240211A4896
:103A100004F01CFD1148483805F0C6FC00BF0F48F3
:103A2000483805F0EAFD0028F9D14FF00060009019
:103A30001148001D01901148029040200390800021
:103A40000490002005904FF4806019E000100140C0
:103A500000000240000C024000440040A060024010
:103A60000E2800200E2900200E32002038230020CE
:103A7000400F002000040240004800400E2A0020B1
:103A8000069000200790089009904FF480300A902B
:103A900000200B9003200C9000200D900E906946A2
:103AA000FE4805F023FDFD48303805F07DFC00BFE1
:103AB000FA48303805F0A1FD0028F9D14FF0006038
:103AC0000090F7480190F7480290002003904FF4CF
:103AD00080700490002005904FF4806006900020D4
:103AE0000790089009904FF480300A9000200B90C6
:103AF00003200C9000200D900E906946E748303866
:103B000005F0F4FC0121E548303805F029FD4FF4BB
:103B10008050E549088016B010BD1CB519F07CFF37
:103B200040F22441DE48001F04F0D4FC90B3002191
:103B3000DA48303805F014FDD948001F0488001D0C
:103B40000488D648303805F02EFDC0F5807084B268
:103B500074B12246D349D54820F0F5F9082C07D195
:103B600001A800232246D1490090D1481DF0D6FF7C
:103B7000D049CA48303805F06CFD4FF48071C74811
:103B8000303805F00EFD0121C448303805F0E8FC5E
:103B900019F053FF1CBD10B596B00446012108462C
:103BA00003F0C8FA0121C80403F00DFB0121480508
:103BB00003F0C0FA08220021BF4803F0A8F8082249
:103BC0000121BD4803F0A3F80320149002208DF8D2
:103BD00054008DF8550000208DF8560001208DF816
:103BE000570014A9B44803F007F8082014900120E6
:103BF0008DF8540000208DF8560003208DF85500F4
:103C000001208DF8570014A9AB4802F0F5FF10947D
:103C10000020ADF84400ADF84600ADF84800ADF81E
:103C20004C000C20ADF84A0010A9A44804F0D9FAC1
:103C30000121A24804F05DFB012240F224419F488B
:103C400004F00DFC34208DF83C0004208DF83D007C
:103C500003208DF83E0001208DF83F000FA802F0F0
:103C6000DAFE01228021954804F0F0FB0122402178
:103C7000924804F0EBFB8948183005F095FB00BF33
:103C80008648183005F0B9FC0028F9D14FF00060E3
:103C900000908A48001D01908948029040200390BE
:103CA00080000490002005904FF480600690002072
:103CB0000790089009904FF480300A9000200B90F4
:103CC00003200C9000200D900E9069467348183028
:103CD00005F00CFC7148183805F066FB00BF6F4812
:103CE000183805F08AFC0028F9D14FF000600090E8
:103CF0007248001D019073480290002003904FF419
:103D000080700490002005904FF4806006900020A1
:103D10000790089009904FF480300A9000200B9093
:103D200003200C9000200D900E9069465B481838D7
:103D300005F0DCFB01215948183805F011FC08207A
:103D40005D49088316B010BD1CB519F065FE40F240
:103D500024415A4804F0BEFB88B300214F4818386C
:103D600005F0FEFB55480488001D04884B481838B0
:103D700005F019FCC0F5807084B274B12246514937
:103D8000514820F0E0F8082C07D101A80023224672
:103D90004D49009046481DF0C1FE4C493F48183837
:103DA00005F057FC4FF480713C48183805F0F9FBDA
:103DB00001213A48183805F0D3FB19F03EFE1CBD2E
:103DC00010B596B004460121042003F0B3F9012197
:103DD000082003F0AFF90121080503F0F4F90121EF
:103DE000480503F0A7F908220C21394802F08FFF9B
:103DF00008220221374802F08AFF4FF480501490C5
:103E000002208DF854008DF8550000208DF85600E2
:103E100001208DF8570014A92D4802F0EDFE042072
:103E2000149002208DF854008DF8550000208DF874
:103E3000560001208DF8570014A9264802F0DCFE38
:103E400010940020ADF84400ADF84600ADF84800ED
:103E5000ADF84C000C20ADF84A0010A91E4804F043
:103E6000C0F901211C4804F044FA012240F2244127
:103E7000194804F0F4FA35208DF83C0003208DF841
:103E80003D008DF83E0001208DF83F000FA802F0A4
:103E9000C2FD01228021104820E00000586002404D
:103EA000044800400E2B002018040240223200205B
:103EB00038230020400F001000000240004C00405A
:103EC0000E2C00200E2D00202233002000003D107B
:103ED00000080240000C02400050004004F0B6FA16
:103EE00001224021FE4804F0B1FAFE4805F05CFAD8
:103EF00000BFFC4805F081FB0028FAD14FF00060BC
:103F00000090F748001D0190F74802904020039070
:103F100080000490002005904FF4806006900020FF
:103F20000790089009904FF480300A9000200B9081
:103F300003200C9000200D900E906946E94805F092
:103F4000D5FAE848A83805F02FFA00BFE548A838A8
:103F500005F053FB0028F9D14FF000600090E048D5
:103F6000001D0190E1480290002003904FF4807002
:103F70000490002005904FF4806006900020079088
:103F8000089009904FF480300A9000200B90032095
:103F90000C9000200D900E906946D248A83805F08C
:103FA000A5FA0121CF48A83805F0DAFA16B010BDFD
:103FB0001CB519F031FD40F22441C94804F08AFAD9
:103FC00080B30021C748A83805F0CAFAC44804885D
:103FD0008488C448A83805F0E6FAC0F5807084B239
:103FE00074B12246C149C2481FF0ADFF082C07D169
:103FF00001A800232246BE490090BE481DF08EFD58
:10400000BD49B848A83805F024FB4FF48071B54885
:10401000A83805F0C6FA0121B248A83805F0A0FA80
:1040200019F00BFD1CBD10B596B00446012104200B
:1040300003F080F80121402003F07CF801212020CA
:1040400003F0D2F80121880503F074F80822062154
:10405000AA4802F05CFE08220721A84802F057FE99
:10406000C020149002208DF854008DF855000020D7
:104070008DF8560001208DF8570014A99F4802F0D2
:10408000BBFD4FF48070149001208DF85400002087
:104090008DF8560003208DF8550001208DF857004B
:1040A00014A9974802F0A8FD10940020ADF8440030
:1040B000ADF84600ADF84800ADF84C000C20ADF866
:1040C0004A0010A98F4804F08CF801218D4804F0B3
:1040D00010F9012240F224418A4804F0C0F9472037
:1040E0008DF83C0004208DF83D0003208DF83E0043
:1040F00001208DF83F000FA802F08DFC01228021E5
:10410000804804F0A3F9012240217E4804F09EF982
:104110007D4805F049F900BF7B4805F06EFA00289C
:10412000FAD14FF0206000907648001D019077484A
:1041300002904020039080000490002005904FF4EE
:104140008060069000200790089009904FF480301E
:104150000A9000200B9003200C9000200D900E90F0
:104160006946694805F0C2F96748783805F01CF9D6
:1041700000BF6548783805F040FA0028F9D14FF0C3
:10418000206000905F48001D01906148029000206F
:1041900003904FF480700490002005904FF48060ED
:1041A000069000200790089009904FF480300A9004
:1041B00000200B9003200C9000200D900E9069467B
:1041C0005148783805F092F901214F48783805F0C8
:1041D000C7F94FF480704A491831088016B010BDF5
:1041E0001CB519F019FC40F22441464804F072F95C
:1041F00088B300214448783805F0B2F94148048872
:10420000001D04884048783805F0CDF9C0F580706D
:1042100084B274B122463E493E481FF094FE082CF9
:1042200007D101A8002322463A49009031481DF0E9
:1042300075FC39493448783805F00BFA4FF4807131
:104240003148783805F0ADF901212F48783805F06C
:1042500087F919F0F2FB1CBD70B504460D461646F1
:10426000012C2AD100211F48183805F079F900BF28
:104270001C48183805F0C1F90028F9D12749194818
:10428000183805F0E6F917480C3805601548B838B5
:10429000C0F8A46001211348183805F061F904E062
:1042A0001E491048183805F0D4F91C490D48183833
:1042B00005F0B3F90028F3D1C6E0042C4AD100215F
:1042C000084805F04DF900BF064805F096F90028AA
:1042D000FAD14FF02051034805F0BBF901481FE027
:1042E00000500040B86002400E2E00200E2F00202B
:1042F00036330020382300203D00801000080240A3
:104300000018024000140140A06402400E3000205A
:104310000E3100204A330020400F00100000202002
:104320000C300560FE48C0F8BC600121FC48B83084
:1043300005F016F905E04FF02051F948B83005F0C6
:1043400088F94FF02051F648B83005F066F900289A
:10435000F1D179E0022C23D10021F24805F000F9D7
:1043600000BFF04805F049F90028FAD1EE49ED48C0
:1043700005F06FF9EB480C300560EA48001D066057
:104380000121001F05F0ECF803E0E749E54805F0DE
:1043900060F9E549E34805F040F90028F5D153E01C
:1043A000052C29D10021DE48583005F0D9F800BF8E
:1043B000DB48583005F021F90028F9D14FF0C05101
:1043C000D748583005F045F9D5484566C6650121FE
:1043D000D348583005F0C4F805E04FF0C051D0483C
:1043E000583005F036F94FF0C051CD48583005F03F
:1043F00014F90028F1D127E0062C25D10021C84866
:10440000703005F0ADF800BFC548703005F0F5F824
:104410000028F9D1C549C248703005F01AF9C048E2
:10442000C56746670121BE48703005F099F804E081
:10443000BE49BB48703005F00CF9BC49B848703033
:1044400005F0EBF80028F3D170BD70B505460C46B9
:104450001646042D11D10BE000BF4021B44804F0F2
:1044600023F80028F9D014F8011BB14803F06CFFC1
:10447000301EA6F10101CEB2EED1022D11D10BE01A
:1044800000BF4021AB4804F00FF80028F9D014F821
:10449000011BA84803F058FF301EA6F10101CEB25F
:1044A000EED170BD10B5130A0C8803550B885B1C48
:1044B000C2540B889B1C0B8010BD2DE9F041C2B08B
:1044C0000746884616460025002400BF2CE0785D8C
:1044D00000098DF80401785D00F00F008DF80501EA
:1044E000002418E041A8005D0A2805DA41A8005D13
:1044F000303041A908550DE041A8005D102805DACB
:1045000041A8005D373041A9085503E0002042B0C2
:10451000BDE8F081641C022CE4DB01A800EB45003F
:10452000BDF8041101806D1CB542D0DB002001AA4A
:1045300002F81600720001A940461FF004FD002099
:1045400008F816000120E2E730B502460C460021CB
:10455000134603E013F8015B681881B2201EA4F132
:104560000105ECB2F6DCC8B230BDF8B50546062050
:10457000009000244FF480716F481FF04BFD4FF402
:1045800080716E481FF024FD77206B4908708820E9
:104590004870022088700120C8700846057168487C
:1045A000027869466448FFF77DFF664802786946ED
:1045B0006148FFF777FF6448027869465E48FFF775
:1045C00071FF6248028869465B48FFF76BFF5F48EE
:1045D00040880A2190FBF1F086B23246694656487F
:1045E000FFF760FF5948408B0A2190FBF1F086B23B
:1045F000324669465048FFF755FF54488088534972
:10460000C98848434FF47A7190FBF1F04F49C86173
:104610000846808B82B269464748FFF743FF4B4804
:10462000828869464448FFF73DFF4848C0880A2110
:1046300090FBF1F086B2324669463F48FFF732FF01
:10464000424800890A2190FBF1F086B23246694661
:104650003948FFF727FF3D48428969463648FFF74A
:1046600021FF3A4880890A2190FBF1F086B2324658
:1046700069463148FFF716FF3448C0890A2190FB8C
:10468000F1F086B2324669462B48FFF70BFF2F4800
:10469000008A0A2190FBF1F086B23246694626482C
:1046A000FFF700FF2948827C69462348FFF7FAFE9E
:1046B0002648C27C69462048FFF7F4FE2348027D65
:1046C00069461D48FFF7EEFE2048427D69461A48BC
:1046D000FFF7E8FE1D48827D69461748FFF7E2FEB6
:1046E0001A48428C69461448FFF7DCFE1748828C52
:1046F00069461148FFF7D6FE1448C28C69460E4839
:10470000FFF7D0FE1148028D69460B48FFF7CAFE3D
:104710000E48428D69460848FFF7C4FE0C4819E070
:1047200000600240A0640240000020202000002021
:104730000050004000140140700000205E33002053
:104740006500002063000020640000207427002022
:1047500066000020027869464548FFF7A3FE4548F9
:10476000808C082101EA202028B1092042490870E4
:104770000320424908703F48C08C082101EA2020EC
:1047800028B109203C49087003203C490870BDF855
:104790000000801F36494871BDF80000801FC1B27B
:1047A0003348801DFFF7D0FE3149BDF80020885402
:1047B000BDF80000401C84B2224631492C48FFF766
:1047C0007CFE4FF6FF7000EA44022D490120FFF7FE
:1047D00043FD2948007898B92A48007880B92548CF
:1047E000408CC0F3002010B10120244908702148FA
:1047F000408C022101EA202010B100201F490870DE
:10480000F8BD10B504464FF4807119481FF002FC42
:104810004FF480711A481FF0DBFB772014490870B1
:1048200088204870022088700120C870202C01D098
:10483000212C07D10E48047100200D494871887160
:10484000C87109E0232C07D10948047101200849E7
:10485000487188710020C871082209490448FFF78F
:104860002CFE102206490120FFF7F6FC10BD0000C7
:1048700070000020742700206300002065000020E5
:104880005E330020640000200020FE490860091DFE
:104890000860091D0860091D0860FA492431086094
:1048A000091D0860091D0860F748F649383108609D
:1048B0000020091D0860704701460020012900D032
:1048C00011B9F24B197000E0262070470146ED4AFD
:1048D000121D106820F0FF0008431060704770B58B
:1048E000044606E0E7483430056805F0450000B1AD
:1048F00000E0F7E700BF042005F00AFD20B1042026
:1049000005F011FD032070BD012005F001FD20B16F
:10491000012005F008FD0120F5E7DA4810300068B5
:10492000A04201D01020EEE740F2FF5005F0FBFC62
:10493000D4481430006808210840C0B2E3E72DE9EC
:10494000FC4107460D4600260024002000900190FF
:104950000820CF490860102048604020886000206F
:10496000C8604FF480600861084605F03EFC1020E6
:10497000FFF7B5FF044614B12046BDE8FC81C548E9
:1049800000880004C24908603720486040208860E1
:104990000020C8604FF480600861084605F025FCDF
:1049A0003720FFF79CFF04460CB12046E5E74FF0A7
:1049B000FF30B94908600820486030208860022034
:1049C000C8600020086101204861084605F039FCF4
:1049D0000020AF49086033204860402088600020F4
:1049E000C8604FF480600861084605F0FEFB332084
:1049F000FFF775FF04460CB12046BEE70DE04FF40B
:104A0000001005F085FC40B19E48803000684DF8EC
:104A10002600761C022E00D307E09A483430006846
:104A200040F22A6108400028E9D000BF082005F0C4
:104A30006FFC20B1082005F076FC04209DE70220E1
:104A400005F066FC20B1022005F06DFC022094E721
:104A5000202005F05DFC20B1202005F064FC06203C
:104A60008BE74FF4007005F053FC28B14FF4007051
:104A700005F059FC072080E740F2FF5005F053FC99
:104A800000980006009901F47F4140EA0120009956
:104A900001F47F0140EA1120009940EA116068604A
:104AA00001980006019901F47F4140EA0120019933
:104AB00001F47F0140EA1120019940EA1160286069
:104AC00020465AE77CB5054600240020009001905E
:104AD00000260DB1022600E000266A481430006866
:104AE00000F0007008B10E207CBD6A49098888B2C8
:104AF0006946FFF724FF04460CB12046F4E701980D
:104B000000F4802060B363480088000460490860B6
:104B100037204860402088600020C8604FF48060E3
:104B20000861084605F061FB3720FFF7D8FE044610
:104B30000CB12046D8E75648066006205449486024
:104B4000402088600020C8604FF4806008610846FB
:104B500005F04BFB0620FFF7C2FE04462046C3E7E4
:104B60002520C1E770B5044600254C48007803288D
:104B700002D12725284670BD4848007838B14748FB
:104B80000078012803D045480078022819D1B4F5EF
:104B9000805F02D127252846EDE7E0B2FFF792FFBC
:104BA000054675B93748001D006820F4C0503549E6
:104BB000091D086008460068204308600846006830
:104BC00008602846D7E710B504463148046007203E
:104BD0002F494860402088600020C8604FF4806002
:104BE0000861084605F001FB0720FFF778FE10BDBD
:104BF000F0B5014600200022284B1B7881F8563082
:104C0000244B1B88A1F85430254B1B681A0E9309BE
:104C10000B70C2F383034B7002F003038B70204BC5
:104C20001B68C3F30742CA701D4B1B88C3F30722DE
:104C30000A711B4B1A784A715B681A0E1301CB80FC
:104C4000174B5B68C3F30742CB8843EA1213CB8050
:104C500002F00F030B72124B9B88C3F30722D30998
:104C60004B72C2F380138B72C2F34013CB72C2F348
:104C700000130B7300234B73084B1B78C3B1074B16
:104C80001B780FE0002C0140FF07C0007C010020D2
:104C900078340020780100208C340020740100203A
:104CA000A4340020012B03D0FE4B1B78032B4FD1E3
:104CB00093071B0D0B61FC4B1A790B6943EA8203C6
:104CC0000B61F94B9B681A0E0B6943EA92130B6157
:104CD000C2F3C2030B7502F007034B75F24B9B68DE
:104CE000C3F3074253098B75C2F38203CB75930755
:104CF0005B0F0B76EC4B1B89C3F307220B7E43EA59
:104D0000D2130B760B695B1C0024C1E912340B7EB5
:104D10009B1C012606FA03F3DE17D1E91245A4FB1A
:104D2000037C05FB03C304FB0633C1E912730C7A51
:104D30000123A3400B650024D1E912560B6DA5FB9E
:104D4000037C06FB03C305FB0433C1E912732CE0AB
:104D5000D44B1B78022B28D1D34B1A7993069B0A8C
:104D60000B61D14B9B681A0E0B6943EA02230B615E
:104D7000CD4B9B68C3F307420B6913430B61CA4BCE
:104D80001B89C3F307220B695B1C4FF40074A3FB60
:104D9000043566000027A3FB064C05FB06C503FB94
:104DA0000753C1E9124373100B65C2F3801301F876
:104DB000193F93065B0E4B70BB4B1A7A4B7843EA54
:104DC000D2134B7002F07F038B70B74BDB681A0E67
:104DD000D309CB70C2F341130B71C2F382034B7141
:104DE00093071B0F8B71B04BDB68C3F307428B79C2
:104DF00043EA92138B71C2F34013CB7100230B7201
:104E000002F001034B72A84B9B89C3F30722D3091D
:104E10008B72C2F38013CB72C2F340130B73C2F3D5
:104E200000134B73C2F381038B7302F00303CB7344
:104E30009D4B1A7B53080B7401234B749B4B1B68CF
:104E40001A0ECA741939994B1B68C3F3074214022E
:104E5000CC85964B1B88C3F30722CB8D1343CB85A0
:104E6000924B1A7814060C635B681A0E0B6B43EABC
:104E700002440C638D4B5B68C3F307420B6B43EA40
:104E800002240C63894B9B88C3F307220B6B1343EB
:104E90000B63864B1A7934235A54844B9B681A0E41
:104EA00035235A54814B9B68C3F3074214068C6325
:104EB0007E4B1B89C3F307228B6B43EA02448C634E
:104EC0007A4B1A7A8B6B43EA02248C63774BDB684C
:104ED0001A0E8B6B13438B63744BDB68C3F307426F
:104EE0003C235B5C43EA12143C235C5413071C0D07
:104EF000CC876E4B9B89C3F30722CB8F1343CB87A1
:104F00006A4B1A7B540840235C54012441235C54AF
:104F1000F0BD70B500264FF4803505E064480468A4
:104F200004F0450000B103E0281EA5F10105F5D10C
:104F300000BF15B104F0040028B10326042005F0D9
:104F4000F2F9304670BD012005F0E2F918B10126F2
:104F5000012005F0E8F940F2FF5005F0E4F9304691
:104F6000F0E72DE9F04105460E464FF0000805E058
:104F70004F48076807F0450000B100E0F8E700BFC0
:104F8000042005F0C5F928B1042005F0CCF9032070
:104F9000BDE8F081012005F0BBF920B1012005F04A
:104FA000C2F90120F4E7424824380068A84201D041
:104FB0001020EDE740F2FF5005F0B5F93C482038ED
:104FC000046804F4604018B9200C30804046DFE7E4
:104FD00004F4005008B11320DAE704F4804008B16B
:104FE0001020D5E704F4004008B10F20D0E7404678
:104FF000CEE738B500240120009005F0F0F810B994
:105000002524204638BD27480078042825D00020D4
:105010002849086002204860C02088600020C860DD
:105020004FF480600861084605F0DFF8FFF771FF74
:1050300004460CB12046E5E71D48203800681B49AE
:1050400008601B481C380068486019481838006818
:105050008860174814380068C8601248007858B152
:1050600010480078012807D00E480078062803D0A1
:105070000C480078022821D100200E490860032046
:105080004860402088600020C8604FF4806008615C
:10509000084605F0AAF869460320FFF762FF0446B8
:1050A00064B109E074010020A4340020B43400206D
:1050B000342C0140783400202046A3E7FE480078D5
:1050C000032816D1BDF800000004FC490860032045
:1050D0004860402088600020C8604FF4806008610C
:1050E000084605F082F8FFF714FF04460CB120468D
:1050F00088E7F148007804282AD0BDF80000F0497C
:105100000860BDF800000004EC4908600920486010
:10511000C02088600020C8604FF4806008610846A5
:1051200005F063F8FFF7F5FE04460CB1204669E789
:10513000E4480068E4490860E248001D00684860EF
:10514000E048083000688860DE480C300068C860BD
:10515000002057E710B506E0DA482030046804F074
:10516000450000B100E0F7E700BF042005F0D0F8EB
:1051700020B1042005F0D7F8032010BD40F2FF5005
:1051800005F0D1F80020F8E770B500264FF480351F
:1051900006E0CC482030046804F0450000B103E08C
:1051A000281EA5F10105F4D100BF15B104F00400DB
:1051B00028B10326042005F0B6F8304670BD04F08F
:1051C000400018B10026402005F0ADF83046F5E764
:1051D00070B500254FF4803404E0802005F098F885
:1051E00000B103E0201EA4F10104F6D100BF0CB908
:1051F000032070BD40F2FF5005F095F82846F8E70F
:105200002DE9F0470027002400260025A046A146EE
:105210007620AE4908750020086048608860C86044
:105220000861084604F0B7FF032004F0D4FFA54846
:105230001038006840F48070A2491039086000BF3F
:1052400012E000209D49086048608860C8604FF403
:1052500080600861084604F0C8FFFFF7B9FF044604
:1052600004B903E0781CC7B24A2FEADB00BF14B1CF
:105270002046BDE8F0874FF4D570904908600820BB
:105280004860402088600020C8604FF4806008615A
:10529000084604F0AAFFFFF777FF044624B901206F
:1052A000854908704FF08049002084490860372004
:1052B0004860402088600020C8604FF4806008612A
:1052C000084604F092FF3720FFF709FB0446002C44
:1052D0004BD134E0002079490860372048604020F5
:1052E00088600020C8604FF480600861084604F0C0
:1052F0007CFF3720FFF7F3FA04460CB12046B8E7ED
:10530000734849EA00006D49086029204860402040
:1053100088600020C8604FF480600861084604F08F
:1053200064FFFFF717FF04460CB12046A1E765486C
:105330000668012080EAD67080F001086D1CB8F183
:10534000000F03D14FF6FF708542C3D34FF6FF70B5
:10535000854202D31B2420468BE706F08040061EC0
:1053600032D00220544908702EE01CE059485349BD
:10537000086001204860402088600020C8604FF429
:1053800080600861084604F030FFFFF7E3FE044642
:105390000CB120466DE74B480668012080EAD670C4
:1053A00080F001086D1CB8F1000F03D14FF6FF70BB
:1053B0008542DBD34FF6FF70854202D31B24204683
:1053C00057E703203C490870204652E73EB50024C9
:1053D00000250121404801F0ADFE0121C80201F085
:1053E00003FF0121C80201F054FF4FF4F85001906F
:1053F00002208DF808008DF8090000208DF80A00C1
:1054000001208DF80B0001A9344801F0F5FB0420C0
:10541000019001A9324801F0EFFB0C2208212F482E
:1054200001F075FC0C2209212C4801F070FC0C22C3
:105430000A212A4801F06BFC0C220B21274801F0BD
:1054400066FC0C221146254801F061FC0C22022169
:10545000234801F05CFC00214FF4006001F019FFCB
:10546000FFF712FA31208DF8000000208DF80100BE
:105470008DF8020001208DF80300684601F0CBFA98
:10548000FFF7BEFE044614B9FFF7B3FD04461CB98E
:105490001448FFF7ADFB044634B91249B1F8541073
:1054A0000804FFF790FB044624B94FF40060FFF7AF
:1054B00059FB0446E4B117E0740100207834002061
:1054C00078010020142C0140A43400206034002016
:1054D000000010800080FF800C00400000080240A7
:1054E000000C0240C8340020FE480078032812D186
:1054F000FD4890F8560020B1FB4890F8560001286E
:1055000001D1022500E000252846FFF7DFF9002041
:10551000FFF7D2F9044620463EBD10B5002004F046
:105520005AFE002010BD70B590B004460E461546D8
:1055300000BFEE4804F061F80028FAD1EB4803F010
:1055400033FF4FF000600190E94802900394049506
:105550000020059006904FF480600790800008902E
:105560008000099000200A904FF440300B900420F6
:105570000C9003200D904FF400000E9080100F90BF
:1055800001A9DA4803F0B2FF2021D84803F0FEFF5A
:105590000121D64803F0E4FF10B070BD01460020A1
:1055A00002E04910421CD0B20129FAD170472DE91E
:1055B000F84F8146174698460A9C4FF0000AD3469A
:1055C0004D464FF0FF36B9F1000F02D12620BDE85D
:1055D000F88F0020C64954390860C2480078022874
:1055E00005D10402780A40EAC8574FEA682800202B
:1055F000C04988604860401E086001204861002062
:10560000C8600861084604F01CFEB9486C380068A0
:1056100000F0007008B10E20D9E7002C21DDB4F5B0
:10562000006F1EDC601E2040D8B92046FFF7B6FF91
:105630000090B14804601020AF4948604020886065
:105640000020C8604FF480600861084604F0CDFD7A
:105650001020FFF744F98246BAF1000F03D05046FC
:10566000B5E72620B3E700980001A2498860084604
:1056700044604FF0FF300860012048610220C8609C
:1056800000200861084604F0DCFD9B4807601120FB
:1056900099494860402088600020C8604FF48060CD
:1056A0000861084604F0A1FD1120FFF718F98246B1
:1056B000BAF1000F01D0504689E7904800780028E1
:1056C0005AD1FAF7E6FD17E04FF4004004F020FE4F
:1056D00070B14FF0000B05E08548006845F82B00DD
:1056E0000BF1010BBBF1080FF6D32035844E03E01C
:1056F0000EB904206BE7761E7D484C38006840F2F6
:105700002A6108400028DFD0082004F001FE20B103
:10571000082004F008FE042059E7022004F0F8FDF8
:1057200020B1022004F0FFFD022050E7202004F009
:10573000EFFD20B1202004F0F6FD062047E74FF4EE
:10574000007004F0E5FD28B14FF4007004F0EBFDAB
:1057500007203CE703E06648006828602D1D4FF4F1
:10576000001004F0D5FD0028F5D1FAF794FD40F2C1
:10577000FF5004F0D8FD39E060480078012835D1A9
:1057800000206049087060490870604908705848F6
:105790004438006840F22A310843554944390860CA
:1057A00053485438006840F00800514954390860A3
:1057B000002221464846FFF7B6FE00E0761E4B4821
:1057C0005838006800F0006038B95048007820B9B7
:1057D0004C48007808B9002EF0D10EB90420F6E646
:1057E0004848007810B1474890F800A05046EEE6CF
:1057F0002DE9FF5F17469846DDE90E464FF0000998
:10580000CA464FF0FF3542490098086000203849E9
:105810005439086033480078022805D10402780A18
:1058200040EAC8574FEA682800203249886048603B
:10583000401E0860012048610020C86008610846D9
:1058400004F0FFFC2A486C38006800F0007018B1C2
:105850000E2004B0BDE8F09F002C21DDB4F5006FF0
:105860001EDC601E2040D8B92046FFF797FE834615
:1058700021480460102020494860402088600020B2
:10588000C8604FF480600861084604F0AEFC102048
:10589000FFF725F88146B9F1000F03D04846D8E755
:1058A0002620D6E7012E6ED906FB04F0B0F1007F6A
:1058B00001D32620CDE74FEA0B100E49886006FB86
:1058C00004F048604FF0FF3008600120486102207A
:1058D000C86000200861084604F0B3FC0648076071
:1058E000122017E074010020C834002058640240E0
:1058F000802C01408C340020783400207C01002072
:10590000FFFF7F007E0100207D0100207F0100203D
:1059100080010020F9494860402088600020C8606C
:105920004FF480600861084604F05FFC1220FEF727
:10593000D6FF8146B9F1000F01D0484689E7F0480B
:10594000007800287ED1FAF7A4FC1EE04FF4004056
:1059500004F0DEFCA0B14FF0000A07E0E94800685F
:10596000E949096841F82A000AF1010ABAF1080F69
:10597000F4D3E54800682030E3490860E34D04E0D3
:1059800015B9042065E7AEE06D1EDE484C380068AE
:1059900040F22A3108400028D8D0082004F0B8FC92
:1059A00020B1082004F0BFFC042052E7022004F0DC
:1059B000AFFC20B1022004F0B6FC022049E7202011
:1059C00004F0A6FC20B1202004F0ADFC062040E746
:1059D0004FF4007004F09CFC28B14FF4007004F008
:1059E000A2FC072035E709E0C6480068C6490968F7
:1059F0000860C5480068001DC34908604FF40010E6
:105A000004F086FC0028EFD14FF4807004F080FC95
:105A100020B3BF48007838B1BD480078012803D0D2
:105A2000BB480078022819D10020B44908600C2036
:105A30004860402088600020C8604FF480600861A2
:105A4000084600E011E004F0D0FB0C20FEF747FF11
:105A50008146B9F1000F01D04846FAE6FAF71BFC7F
:105A600040F2FF5004F05FFC3DE0A54800780128BB
:105A700039D10020A74908700120A74908700020EB
:105A8000A64908709F484438006840F22A3108430C
:105A90009C49443908609B485438006840F008002D
:105AA00098495439086006FB04F100220098FFF77A
:105AB0003AFD00E06D1E9A48006800F0006008B9E9
:105AC000002DF7D10DB90420C3E600BF934800783C
:105AD00018B9904800780028F8D08E48007810B1A6
